{"contracts/privacy/PrivacyProcessor.sol":{"PrivacyProcessor":{"abi":[{"inputs":[{"internalType":"address","name":"_engine","type":"address"},{"internalType":"enum PrivacyProcessor.PrivacyLevel","name":"_defaultLevel","type":"uint8"}],"stateMutability":"nonpayable","type":"constructor"},{"inputs":[],"name":"activeLevel","outputs":[{"internalType":"enum PrivacyProcessor.PrivacyLevel","name":"","type":"uint8"}],"stateMutability":"view","type":"function"},{"inputs":[{"internalType":"address","name":"","type":"address"}],"name":"agentPrivacyLevel","outputs":[{"internalType":"enum PrivacyProcessor.PrivacyLevel","name":"","type":"uint8"}],"stateMutability":"view","type":"function"},{"inputs":[],"name":"ghostEngine","outputs":[{"internalType":"address","name":"","type":"address"}],"stateMutability":"view","type":"function"},{"inputs":[{"internalType":"bytes","name":"payload","type":"bytes"},{"internalType":"address","name":"agent","type":"address"}],"name":"process","outputs":[{"internalType":"bytes32","name":"sanitizedHash","type":"bytes32"}],"stateMutability":"nonpayable","type":"function"},{"inputs":[{"internalType":"address","name":"agent","type":"address"},{"internalType":"enum PrivacyProcessor.PrivacyLevel","name":"level","type":"uint8"}],"name":"setAgentLevel","outputs":[],"stateMutability":"nonpayable","type":"function"},{"inputs":[{"internalType":"address","name":"_engine","type":"address"}],"name":"setEngine","outputs":[],"stateMutability":"nonpayable","type":"function"},{"inputs":[{"internalType":"enum PrivacyProcessor.PrivacyLevel","name":"level","type":"uint8"}],"name":"setGlobalLevel","outputs":[],"stateMutability":"nonpayable","type":"function"}],"evm":{"bytecode":{"linkReferences":{},"object":"60803461008c57601f61059c38819003918201601f19168301916001600160401b0383118484101761009157808492604094855283398101031261008c5780516001600160a01b038116919082900361008c576020015190600382101561008c576000549160ff60a01b9060a01b169160018060a81b03191617176000556040516104f490816100a88239f35b600080fd5b634e487b7160e01b600052604160045260246000fdfe6040608081526004908136101561001557600080fd5b600091823560e01c9081630e830e4914610382578163146d433c146103335781634e0930cd146102f15781638bcfc8d01461012357508063b4b3a542146100f8578063b5a6a7901461009a5763cfb83d4c1461007057600080fd5b34610096578160031936011261009657905490516001600160a01b039091168152602090f35b5080fd5b50346100965780600319360112610096576100b36103ce565b906024359160038310156100f45783546001600160a01b0391906100da9083163314610412565b168352600160205282209060ff8019835416911617905580f35b8380fd5b503461009657816003193601126100965760ff61011f925460a01c169051918291826103e9565b0390f35b8284346102ee57816003193601126102ee57823567ffffffffffffffff938482116102ea57366023830112156102ea5781810135908582116100f45760249586840193878436920101116102e6576001600160a01b03968035888116908190036102e2576101968754998a163314610412565b80875260209860018a5260ff898920541660038110156102d057156102c3575086526001885260ff87872054165b60038110156102b157806101f057505050506101e292503691610455565b828151910120905b51908152f35b60019095919395949294146000146102605761020d913691610455565b8681519101209385519387850195673830b93a34b0b61d60c11b8752602886015260288552606085019385851090851117610250575050508352519020906101ea565b634e487b7160e01b825260419052fd5b61026b913691610455565b868151910120938551938785019564333ab6361d60d91b8752602586015242604586015260458552608085019385851090851117610250575050508352519020906101ea565b50634e487b7160e01b86526021835285fd5b60ff915060a01c166101c4565b634e487b7160e01b8952602186528389fd5b8680fd5b8480fd5b8280fd5b80fd5b5050346100965760203660031901126100965761011f9160ff9082906001600160a01b0361031d6103ce565b16815260016020522054169051918291826103e9565b8390346100965760203660031901126100965735600381101561009657815490610367336001600160a01b03841614610412565b60ff60a01b1990911660a09190911b60ff60a01b1617815580f35b83346102ee5760203660031901126102ee5761039c6103ce565b8154906001600160a01b03906103b53383851614610412565b16906bffffffffffffffffffffffff60a01b1617815580f35b600435906001600160a01b03821682036103e457565b600080fd5b9190602083019260038210156103fc5752565b634e487b7160e01b600052602160045260246000fd5b1561041957565b60405162461bcd60e51b8152602060048201526014602482015273507269766163793a206f6e6c7920656e67696e6560601b6044820152606490fd5b92919267ffffffffffffffff918281116104a85760405192601f8201601f19908116603f01168401908111848210176104a8576040528294818452818301116103e4578281602093846000960137010152565b634e487b7160e01b600052604160045260246000fdfea26469706673582212200d951ec49e7eb5f2ef11a541a7c98b09e4423a365c10e345b27a174abb75d57b64736f6c63430008180033","opcodes":"PUSH1 0x80 CALLVALUE PUSH2 0x8C JUMPI PUSH1 0x1F PUSH2 0x59C CODESIZE DUP2 SWAP1 SUB SWAP2 DUP3 ADD PUSH1 0x1F NOT AND DUP4 ADD SWAP2 PUSH1 0x1 PUSH1 0x1 PUSH1 0x40 SHL SUB DUP4 GT DUP5 DUP5 LT OR PUSH2 0x91 JUMPI DUP1 DUP5 SWAP3 PUSH1 0x40 SWAP5 DUP6 MSTORE DUP4 CODECOPY DUP2 ADD SUB SLT PUSH2 0x8C JUMPI DUP1 MLOAD PUSH1 0x1 PUSH1 0x1 PUSH1 0xA0 SHL SUB DUP2 AND SWAP2 SWAP1 DUP3 SWAP1 SUB PUSH2 0x8C JUMPI PUSH1 0x20 ADD MLOAD SWAP1 PUSH1 0x3 DUP3 LT ISZERO PUSH2 0x8C JUMPI PUSH1 0x0 SLOAD SWAP2 PUSH1 0xFF PUSH1 0xA0 SHL SWAP1 PUSH1 0xA0 SHL AND SWAP2 PUSH1 0x1 DUP1 PUSH1 0xA8 SHL SUB NOT AND OR OR PUSH1 0x0 SSTORE PUSH1 0x40 MLOAD PUSH2 0x4F4 SWAP1 DUP2 PUSH2 0xA8 DUP3 CODECOPY RETURN JUMPDEST PUSH1 0x0 DUP1 REVERT JUMPDEST PUSH4 0x4E487B71 PUSH1 0xE0 SHL PUSH1 0x0 MSTORE PUSH1 0x41 PUSH1 0x4 MSTORE PUSH1 0x24 PUSH1 0x0 REVERT INVALID PUSH1 0x40 PUSH1 0x80 DUP2 MSTORE PUSH1 0x4 SWAP1 DUP2 CALLDATASIZE LT ISZERO PUSH2 0x15 JUMPI PUSH1 0x0 DUP1 REVERT JUMPDEST PUSH1 0x0 SWAP2 DUP3 CALLDATALOAD PUSH1 0xE0 SHR SWAP1 DUP2 PUSH4 0xE830E49 EQ PUSH2 0x382 JUMPI DUP2 PUSH4 0x146D433C EQ PUSH2 0x333 JUMPI DUP2 PUSH4 0x4E0930CD EQ PUSH2 0x2F1 JUMPI DUP2 PUSH4 0x8BCFC8D0 EQ PUSH2 0x123 JUMPI POP DUP1 PUSH4 0xB4B3A542 EQ PUSH2 0xF8 JUMPI DUP1 PUSH4 0xB5A6A790 EQ PUSH2 0x9A JUMPI PUSH4 0xCFB83D4C EQ PUSH2 0x70 JUMPI PUSH1 0x0 DUP1 REVERT JUMPDEST CALLVALUE PUSH2 0x96 JUMPI DUP2 PUSH1 0x3 NOT CALLDATASIZE ADD SLT PUSH2 0x96 JUMPI SWAP1 SLOAD SWAP1 MLOAD PUSH1 0x1 PUSH1 0x1 PUSH1 0xA0 SHL SUB SWAP1 SWAP2 AND DUP2 MSTORE PUSH1 0x20 SWAP1 RETURN JUMPDEST POP DUP1 REVERT JUMPDEST POP CALLVALUE PUSH2 0x96 JUMPI DUP1 PUSH1 0x3 NOT CALLDATASIZE ADD SLT PUSH2 0x96 JUMPI PUSH2 0xB3 PUSH2 0x3CE JUMP JUMPDEST SWAP1 PUSH1 0x24 CALLDATALOAD SWAP2 PUSH1 0x3 DUP4 LT ISZERO PUSH2 0xF4 JUMPI DUP4 SLOAD PUSH1 0x1 PUSH1 0x1 PUSH1 0xA0 SHL SUB SWAP2 SWAP1 PUSH2 0xDA SWAP1 DUP4 AND CALLER EQ PUSH2 0x412 JUMP JUMPDEST AND DUP4 MSTORE PUSH1 0x1 PUSH1 0x20 MSTORE DUP3 KECCAK256 SWAP1 PUSH1 0xFF DUP1 NOT DUP4 SLOAD AND SWAP2 AND OR SWAP1 SSTORE DUP1 RETURN JUMPDEST DUP4 DUP1 REVERT JUMPDEST POP CALLVALUE PUSH2 0x96 JUMPI DUP2 PUSH1 0x3 NOT CALLDATASIZE ADD SLT PUSH2 0x96 JUMPI PUSH1 0xFF PUSH2 0x11F SWAP3 SLOAD PUSH1 0xA0 SHR AND SWAP1 MLOAD SWAP2 DUP3 SWAP2 DUP3 PUSH2 0x3E9 JUMP JUMPDEST SUB SWAP1 RETURN JUMPDEST DUP3 DUP5 CALLVALUE PUSH2 0x2EE JUMPI DUP2 PUSH1 0x3 NOT CALLDATASIZE ADD SLT PUSH2 0x2EE JUMPI DUP3 CALLDATALOAD PUSH8 0xFFFFFFFFFFFFFFFF SWAP4 DUP5 DUP3 GT PUSH2 0x2EA JUMPI CALLDATASIZE PUSH1 0x23 DUP4 ADD SLT ISZERO PUSH2 0x2EA JUMPI DUP2 DUP2 ADD CALLDATALOAD SWAP1 DUP6 DUP3 GT PUSH2 0xF4 JUMPI PUSH1 0x24 SWAP6 DUP7 DUP5 ADD SWAP4 DUP8 DUP5 CALLDATASIZE SWAP3 ADD ADD GT PUSH2 0x2E6 JUMPI PUSH1 0x1 PUSH1 0x1 PUSH1 0xA0 SHL SUB SWAP7 DUP1 CALLDATALOAD DUP9 DUP2 AND SWAP1 DUP2 SWAP1 SUB PUSH2 0x2E2 JUMPI PUSH2 0x196 DUP8 SLOAD SWAP10 DUP11 AND CALLER EQ PUSH2 0x412 JUMP JUMPDEST DUP1 DUP8 MSTORE PUSH1 0x20 SWAP9 PUSH1 0x1 DUP11 MSTORE PUSH1 0xFF DUP10 DUP10 KECCAK256 SLOAD AND PUSH1 0x3 DUP2 LT ISZERO PUSH2 0x2D0 JUMPI ISZERO PUSH2 0x2C3 JUMPI POP DUP7 MSTORE PUSH1 0x1 DUP9 MSTORE PUSH1 0xFF DUP8 DUP8 KECCAK256 SLOAD AND JUMPDEST PUSH1 0x3 DUP2 LT ISZERO PUSH2 0x2B1 JUMPI DUP1 PUSH2 0x1F0 JUMPI POP POP POP POP PUSH2 0x1E2 SWAP3 POP CALLDATASIZE SWAP2 PUSH2 0x455 JUMP JUMPDEST DUP3 DUP2 MLOAD SWAP2 ADD KECCAK256 SWAP1 JUMPDEST MLOAD SWAP1 DUP2 MSTORE RETURN JUMPDEST PUSH1 0x1 SWAP1 SWAP6 SWAP2 SWAP4 SWAP6 SWAP5 SWAP3 SWAP5 EQ PUSH1 0x0 EQ PUSH2 0x260 JUMPI PUSH2 0x20D SWAP2 CALLDATASIZE SWAP2 PUSH2 0x455 JUMP JUMPDEST DUP7 DUP2 MLOAD SWAP2 ADD KECCAK256 SWAP4 DUP6 MLOAD SWAP4 DUP8 DUP6 ADD SWAP6 PUSH8 0x3830B93A34B0B61D PUSH1 0xC1 SHL DUP8 MSTORE PUSH1 0x28 DUP7 ADD MSTORE PUSH1 0x28 DUP6 MSTORE PUSH1 0x60 DUP6 ADD SWAP4 DUP6 DUP6 LT SWAP1 DUP6 GT OR PUSH2 0x250 JUMPI POP POP POP DUP4 MSTORE MLOAD SWAP1 KECCAK256 SWAP1 PUSH2 0x1EA JUMP JUMPDEST PUSH4 0x4E487B71 PUSH1 0xE0 SHL DUP3 MSTORE PUSH1 0x41 SWAP1 MSTORE REVERT JUMPDEST PUSH2 0x26B SWAP2 CALLDATASIZE SWAP2 PUSH2 0x455 JUMP JUMPDEST DUP7 DUP2 MLOAD SWAP2 ADD KECCAK256 SWAP4 DUP6 MLOAD SWAP4 DUP8 DUP6 ADD SWAP6 PUSH5 0x333AB6361D PUSH1 0xD9 SHL DUP8 MSTORE PUSH1 0x25 DUP7 ADD MSTORE TIMESTAMP PUSH1 0x45 DUP7 ADD MSTORE PUSH1 0x45 DUP6 MSTORE PUSH1 0x80 DUP6 ADD SWAP4 DUP6 DUP6 LT SWAP1 DUP6 GT OR PUSH2 0x250 JUMPI POP POP POP DUP4 MSTORE MLOAD SWAP1 KECCAK256 SWAP1 PUSH2 0x1EA JUMP JUMPDEST POP PUSH4 0x4E487B71 PUSH1 0xE0 SHL DUP7 MSTORE PUSH1 0x21 DUP4 MSTORE DUP6 REVERT JUMPDEST PUSH1 0xFF SWAP2 POP PUSH1 0xA0 SHR AND PUSH2 0x1C4 JUMP JUMPDEST PUSH4 0x4E487B71 PUSH1 0xE0 SHL DUP10 MSTORE PUSH1 0x21 DUP7 MSTORE DUP4 DUP10 REVERT JUMPDEST DUP7 DUP1 REVERT JUMPDEST DUP5 DUP1 REVERT JUMPDEST DUP3 DUP1 REVERT JUMPDEST DUP1 REVERT JUMPDEST POP POP CALLVALUE PUSH2 0x96 JUMPI PUSH1 0x20 CALLDATASIZE PUSH1 0x3 NOT ADD SLT PUSH2 0x96 JUMPI PUSH2 0x11F SWAP2 PUSH1 0xFF SWAP1 DUP3 SWAP1 PUSH1 0x1 PUSH1 0x1 PUSH1 0xA0 SHL SUB PUSH2 0x31D PUSH2 0x3CE JUMP JUMPDEST AND DUP2 MSTORE PUSH1 0x1 PUSH1 0x20 MSTORE KECCAK256 SLOAD AND SWAP1 MLOAD SWAP2 DUP3 SWAP2 DUP3 PUSH2 0x3E9 JUMP JUMPDEST DUP4 SWAP1 CALLVALUE PUSH2 0x96 JUMPI PUSH1 0x20 CALLDATASIZE PUSH1 0x3 NOT ADD SLT PUSH2 0x96 JUMPI CALLDATALOAD PUSH1 0x3 DUP2 LT ISZERO PUSH2 0x96 JUMPI DUP2 SLOAD SWAP1 PUSH2 0x367 CALLER PUSH1 0x1 PUSH1 0x1 PUSH1 0xA0 SHL SUB DUP5 AND EQ PUSH2 0x412 JUMP JUMPDEST PUSH1 0xFF PUSH1 0xA0 SHL NOT SWAP1 SWAP2 AND PUSH1 0xA0 SWAP2 SWAP1 SWAP2 SHL PUSH1 0xFF PUSH1 0xA0 SHL AND OR DUP2 SSTORE DUP1 RETURN JUMPDEST DUP4 CALLVALUE PUSH2 0x2EE JUMPI PUSH1 0x20 CALLDATASIZE PUSH1 0x3 NOT ADD SLT PUSH2 0x2EE JUMPI PUSH2 0x39C PUSH2 0x3CE JUMP JUMPDEST DUP2 SLOAD SWAP1 PUSH1 0x1 PUSH1 0x1 PUSH1 0xA0 SHL SUB SWAP1 PUSH2 0x3B5 CALLER DUP4 DUP6 AND EQ PUSH2 0x412 JUMP JUMPDEST AND SWAP1 PUSH12 0xFFFFFFFFFFFFFFFFFFFFFFFF PUSH1 0xA0 SHL AND OR DUP2 SSTORE DUP1 RETURN JUMPDEST PUSH1 0x4 CALLDATALOAD SWAP1 PUSH1 0x1 PUSH1 0x1 PUSH1 0xA0 SHL SUB DUP3 AND DUP3 SUB PUSH2 0x3E4 JUMPI JUMP JUMPDEST PUSH1 0x0 DUP1 REVERT JUMPDEST SWAP2 SWAP1 PUSH1 0x20 DUP4 ADD SWAP3 PUSH1 0x3 DUP3 LT ISZERO PUSH2 0x3FC JUMPI MSTORE JUMP JUMPDEST PUSH4 0x4E487B71 PUSH1 0xE0 SHL PUSH1 0x0 MSTORE PUSH1 0x21 PUSH1 0x4 MSTORE PUSH1 0x24 PUSH1 0x0 REVERT JUMPDEST ISZERO PUSH2 0x419 JUMPI JUMP JUMPDEST PUSH1 0x40 MLOAD PUSH3 0x461BCD PUSH1 0xE5 SHL DUP2 MSTORE PUSH1 0x20 PUSH1 0x4 DUP3 ADD MSTORE PUSH1 0x14 PUSH1 0x24 DUP3 ADD MSTORE PUSH20 0x507269766163793A206F6E6C7920656E67696E65 PUSH1 0x60 SHL PUSH1 0x44 DUP3 ADD MSTORE PUSH1 0x64 SWAP1 REVERT JUMPDEST SWAP3 SWAP2 SWAP3 PUSH8 0xFFFFFFFFFFFFFFFF SWAP2 DUP3 DUP2 GT PUSH2 0x4A8 JUMPI PUSH1 0x40 MLOAD SWAP3 PUSH1 0x1F DUP3 ADD PUSH1 0x1F NOT SWAP1 DUP2 AND PUSH1 0x3F ADD AND DUP5 ADD SWAP1 DUP2 GT DUP5 DUP3 LT OR PUSH2 0x4A8 JUMPI PUSH1 0x40 MSTORE DUP3 SWAP5 DUP2 DUP5 MSTORE DUP2 DUP4 ADD GT PUSH2 0x3E4 JUMPI DUP3 DUP2 PUSH1 0x20 SWAP4 DUP5 PUSH1 0x0 SWAP7 ADD CALLDATACOPY ADD ADD MSTORE JUMP JUMPDEST PUSH4 0x4E487B71 PUSH1 0xE0 SHL PUSH1 0x0 MSTORE PUSH1 0x41 PUSH1 0x4 MSTORE PUSH1 0x24 PUSH1 0x0 REVERT INVALID LOG2 PUSH5 0x6970667358 0x22 SLT KECCAK256 0xD SWAP6 0x1E 0xC4 SWAP15 PUSH31 0xB5F2EF11A541A7C98B09E4423A365C10E345B27A174ABB75D57B64736F6C63 NUMBER STOP ADDMOD XOR STOP CALLER "},"methodIdentifiers":{"activeLevel()":"b4b3a542","agentPrivacyLevel(address)":"4e0930cd","ghostEngine()":"cfb83d4c","process(bytes,address)":"8bcfc8d0","setAgentLevel(address,uint8)":"b5a6a790","setEngine(address)":"0e830e49","setGlobalLevel(uint8)":"146d433c"}}}}}