{"contracts/core/GhostModeEngine.sol":{"GhostModeEngine":{"abi":[{"inputs":[{"internalType":"address[]","name":"initialAgents","type":"address[]"},{"internalType":"address[]","name":"initialAdmins","type":"address[]"}],"stateMutability":"nonpayable","type":"constructor"},{"anonymous":false,"inputs":[{"indexed":false,"internalType":"address","name":"riskOracle","type":"address"},{"indexed":false,"internalType":"address","name":"privacyProcessor","type":"address"},{"indexed":false,"internalType":"bool","name":"enforcementEnabled","type":"bool"}],"name":"EngineConfigured","type":"event"},{"anonymous":false,"inputs":[{"indexed":false,"internalType":"uint256","name":"txId","type":"uint256"},{"indexed":false,"internalType":"address","name":"agent","type":"address"},{"indexed":false,"internalType":"bool","name":"metadataStripped","type":"bool"}],"name":"PrivacyProcessed","type":"event"},{"anonymous":false,"inputs":[{"indexed":false,"internalType":"uint256","name":"txId","type":"uint256"},{"indexed":false,"internalType":"enum IGhostModeEngine.RiskLevel","name":"riskLevel","type":"uint8"},{"indexed":false,"internalType":"uint256","name":"riskScore","type":"uint256"},{"indexed":false,"internalType":"string","name":"reason","type":"string"}],"name":"RiskAssessmentComplete","type":"event"},{"anonymous":false,"inputs":[{"indexed":false,"internalType":"uint256","name":"txId","type":"uint256"},{"indexed":false,"internalType":"bytes","name":"payload","type":"bytes"}],"name":"RiskAssessmentRequested","type":"event"},{"anonymous":false,"inputs":[{"indexed":false,"internalType":"uint256","name":"txId","type":"uint256"},{"indexed":false,"internalType":"address","name":"agent","type":"address"},{"indexed":false,"internalType":"bytes32","name":"payloadHash","type":"bytes32"},{"indexed":false,"internalType":"address","name":"riskOracle","type":"address"},{"indexed":false,"internalType":"uint256","name":"timestamp","type":"uint256"}],"name":"TransactionSubmitted","type":"event"},{"inputs":[{"internalType":"address","name":"agent","type":"address"}],"name":"addAgent","outputs":[],"stateMutability":"nonpayable","type":"function"},{"inputs":[{"internalType":"address","name":"","type":"address"}],"name":"admins","outputs":[{"internalType":"bool","name":"","type":"bool"}],"stateMutability":"view","type":"function"},{"inputs":[{"internalType":"address","name":"","type":"address"}],"name":"authorizedAgents","outputs":[{"internalType":"bool","name":"","type":"bool"}],"stateMutability":"view","type":"function"},{"inputs":[],"name":"enforcementEnabled","outputs":[{"internalType":"bool","name":"","type":"bool"}],"stateMutability":"view","type":"function"},{"inputs":[{"internalType":"uint256","name":"txId","type":"uint256"}],"name":"getTransactionStatus","outputs":[{"components":[{"internalType":"uint256","name":"txId","type":"uint256"},{"internalType":"address","name":"agent","type":"address"},{"internalType":"bytes32","name":"payloadHash","type":"bytes32"},{"internalType":"bytes32","name":"sanitizedHash","type":"bytes32"},{"internalType":"enum IGhostModeEngine.RiskLevel","name":"riskLevel","type":"uint8"},{"internalType":"enum IGhostModeEngine.TxStatus","name":"status","type":"uint8"},{"internalType":"uint256","name":"riskScore","type":"uint256"},{"internalType":"string","name":"riskReason","type":"string"},{"internalType":"uint256","name":"submittedAt","type":"uint256"},{"internalType":"uint256","name":"resolvedAt","type":"uint256"}],"internalType":"struct IGhostModeEngine.GhostTransaction","name":"result","type":"tuple"}],"stateMutability":"view","type":"function"},{"inputs":[{"internalType":"uint256","name":"txId","type":"uint256"}],"name":"isApproved","outputs":[{"internalType":"bool","name":"approved","type":"bool"}],"stateMutability":"view","type":"function"},{"inputs":[],"name":"privacyProcessor","outputs":[{"internalType":"address","name":"","type":"address"}],"stateMutability":"view","type":"function"},{"inputs":[{"internalType":"uint256","name":"txId","type":"uint256"},{"internalType":"enum IGhostModeEngine.RiskLevel","name":"riskLevel","type":"uint8"},{"internalType":"uint256","name":"riskScore","type":"uint256"},{"internalType":"string","name":"reason","type":"string"}],"name":"receiveRiskAssessment","outputs":[],"stateMutability":"nonpayable","type":"function"},{"inputs":[{"internalType":"address","name":"agent","type":"address"}],"name":"removeAgent","outputs":[],"stateMutability":"nonpayable","type":"function"},{"inputs":[],"name":"riskOracle","outputs":[{"internalType":"address","name":"","type":"address"}],"stateMutability":"view","type":"function"},{"inputs":[{"internalType":"bool","name":"_enabled","type":"bool"}],"name":"setEnforcement","outputs":[],"stateMutability":"nonpayable","type":"function"},{"inputs":[{"internalType":"address","name":"_privacyProcessor","type":"address"}],"name":"setPrivacyProcessor","outputs":[],"stateMutability":"nonpayable","type":"function"},{"inputs":[{"internalType":"address","name":"_riskOracle","type":"address"}],"name":"setRiskOracle","outputs":[],"stateMutability":"nonpayable","type":"function"},{"inputs":[{"internalType":"bytes","name":"payload","type":"bytes"}],"name":"submitTransaction","outputs":[{"internalType":"uint256","name":"txId","type":"uint256"}],"stateMutability":"nonpayable","type":"function"}],"evm":{"bytecode":{"linkReferences":{},"object":"6040608081523462000153576200133090813803806200001f8162000158565b93843982018183820312620001535782516001600160401b0393908481116200015357826200005091830162000194565b91602094602083015190811162000153576200006d920162000194565b6001805460ff60a01b1916600160a01b178155909390916000835b6200010a575b5050819293826000905b620000c5575b8584336000526005602052816000209060ff19825416179055516110f690816200023a8239f35b8151811015620001045783906001600160a01b03620000e582856200020e565b511660005260058452866000208260ff19825416179055018362000098565b6200009e565b81518110156200014d5783919082906001600160a01b036200012d82856200020e565b511660005260048552866000208260ff1982541617905501909162000088565b6200008e565b600080fd5b6040519190601f01601f191682016001600160401b038111838210176200017e57604052565b634e487b7160e01b600052604160045260246000fd5b81601f8201121562000153578051916020916001600160401b0384116200017e578360051b908380620001c981850162000158565b80978152019282010192831162000153578301905b828210620001ed575050505090565b81516001600160a01b038116810362000153578152908301908301620001de565b8051821015620002235760209160051b010190565b634e487b7160e01b600052603260045260246000fdfe608080604052600436101561001357600080fd5b60003560e01c908163429b62e514610e8c575080635768603814610dd55780636a1330ea14610d255780636bbc379d14610af65780637910867b14610ab4578063822fa8cc14610a8b578063826fa8eb146107a757806384e798421461074c57806397a6278e146106f45780639cc1ab32146106ce578063ad64d6cb14610626578063bc95ab1b1461012a578063d50507fd146101015763efd76065146100b957600080fd5b346100fc5760203660031901126100fc576004356001600160a01b038116908190036100fc576000526004602052602060ff604060002054166040519015158152f35b600080fd5b346100fc5760003660031901126100fc576000546040516001600160a01b039091168152602090f35b346100fc5760203660031901126100fc5760043567ffffffffffffffff81116100fc5761015b903690600401610f21565b33600052600460205260ff60406000205416156105e1576002549060001982146105cb5760018201600255610191368285611079565b6020815191012092604051936101a685610f92565b60018401855233602086015260408501526000606085015260006080850152600060a0850152600060c085015260405180602081011067ffffffffffffffff60208301111761059f57602081016040526000815260e08501524261010085015260006101208501526001830160005260036020526040600020845181556001810160018060a01b036020870151166bffffffffffffffffffffffff60a01b8254161790556040850151600282015560608501516003820155608085015160038110156105b557610279906004830161100b565b60a085015160058110156105b55761ff0060048301549160081b169061ff00191617600482015560c0850151600582015560e085015194855167ffffffffffffffff811161059f576020966102de826102d56006870154610fd1565b60068701611023565b8790601f831160011461052b5782610120936008959361031593600092610520575b50508160011b916000199060031b1c19161790565b60068501555b610100810151600785015501519101557f749320a3ac6d6d7aa4a1a1ee98aafe3da6c0155fa5a0b887e085ac3e6cb1a8c960a0610359368585611079565b868151910120600180831b036000541660405191600188018352338984015260408301526060820152426080820152a16001546001600160a01b0316610461575b6000546001600160a01b031615610426576103db610417917f02342918dc59357522643fd6fef648671b84aad862d87369a2ed1307fc2d751c933691611079565b6001840160005260038552600460406000200161020061ff00198254161790556040519182916001860183526040878401526040830190610efc565b0390a15b600160405191018152f35b505060ff60015460a01c1661041b57600181016000526003825260406000206004810161030061ff001982541617905560084291015561041b565b61046c368383611079565b6001840160005260038552600460406000200161010061ff00198254161790556040516104cb602a82888101946939b0b734ba34bd32b21d60b11b86526104bb815180928c8686019101610ed9565b810103600a810184520182610faf565b51902060018401600052600385526003604060002001557f8cf3c2d55ba54bc9a0cf5deb409a8f7df0bc0c6735751a3eba6d7e04efb71e4b6060604051600186018152338782015260016040820152a161039a565b015190508b80610300565b9060068501600052886000209160005b601f1985168110610588575092600894926001926101209583601f1981161061056f575b505050811b01600685015561031b565b015160001960f88460031b161c191690558a808061055f565b91928a60018192868501518155019401920161053b565b634e487b7160e01b600052604160045260246000fd5b634e487b7160e01b600052602160045260246000fd5b634e487b7160e01b600052601160045260246000fd5b60405162461bcd60e51b815260206004820152601f60248201527f47686f73744d6f64653a206167656e74206e6f7420617574686f72697a6564006044820152606490fd5b346100fc5760203660031901126100fc57600435801515908181036100fc577f6f475c5b05d45723760ec7d29f67ac6d2eb4608c52801d3a57e2064595a3b2b49133600052600560205261068160ff60406000205416610f4f565b6001805460ff60a01b19811660a09390931b60ff60a01b16929092179055600054604080516001600160a01b0392831681529190921660208201529115159082015280606081015b0390a1005b346100fc5760003660031901126100fc57602060ff60015460a01c166040519015158152f35b346100fc5760203660031901126100fc576004356001600160a01b038116908190036100fc5733600052600560205261073460ff60406000205416610f4f565b6000908152600460205260409020805460ff19169055005b346100fc5760203660031901126100fc576004356001600160a01b038116908190036100fc5733600052600560205261078c60ff60406000205416610f4f565b6000908152600460205260409020805460ff19166001179055005b346100fc5760803660031901126100fc576024356003600435818310156100fc576044356064359367ffffffffffffffff948581116100fc576107ee903690600401610f21565b60005490939192906001600160a01b03163303610a46578460005260209580875260406000205415610a01578560005280875261083282600460406000200161100b565b85600052808752600660406000208460058201550197851161059f576108628561085c8a54610fd1565b8a611023565b6000601f8611600114610971578594928594927fc05a648884bfa9444bd6557ae6e84e2ca56ffb5bf0e71e3cc2ecab24b5242a559a6108bf8760a09b9a61090b96600091610966575b508160011b916000199060031b1c19161790565b90555b8760005289526004604060002042600882015560ff6001548b1c1660001461095357600283036109385701805461ff0019166104001790555b6040519889978852870190610ecc565b604085015260806060850152816080850152848401376000828201840152601f01601f19168101030190a1005b600183036109535701805461ff0019166104001790556108fb565b01805461ff0019166103001790556108fb565b90508801358f6108ab565b601f1986169089600052886000209160005b8181106109ea5750927fc05a648884bfa9444bd6557ae6e84e2ca56ffb5bf0e71e3cc2ecab24b5242a559a61090b93899896938960a09c9b9997106109d2575b5050600187811b0190556108c2565b87013560001989851b60f8161c191690558c806109c3565b91928a60018192868b013581550194019201610983565b60405162461bcd60e51b815260048101889052601760248201527f47686f73744d6f64653a20696e76616c696420747849640000000000000000006044820152606490fd5b60405162461bcd60e51b815260206004820152601b60248201527f47686f73744d6f64653a206f6e6c79207269736b206f7261636c6500000000006044820152606490fd5b346100fc5760003660031901126100fc576001546040516001600160a01b039091168152602090f35b346100fc5760203660031901126100fc57600435600052600360205260ff60046040600020015460081c1660058110156105b557602090600360405191148152f35b346100fc5760203660031901126100fc576000610120604051610b1881610f92565b8281528260208201528260408201528260608201528260808201528260a08201528260c0820152606060e082015282610100820152015260043560005260036020526040600020604051610b6b81610f92565b8154815260018201546001600160a01b03166020820152600282015460408201526003808301546060830152600483015460ff8116918210156105b55760ff91608084015260081c1660058110156105b55760a0820152600582015460c08201526006820191604051600093805490610be382610fd1565b8084529160018116908115610cfe5750600114610cc1575b5050610c0c81600894950382610faf565b60e08401526007810154610100840152015461012082015260405190602082528051602083015260018060a01b0360208201511660408301526040810151606083015260608101516080830152610c6b608082015160a0840190610ecc565b60a08101519060058210156105b557829160c083015260c081015160e083015260e0810151610120610cac6101409283610100870152610160860190610efc565b92610100810151828601520151908301520390f35b90945060005260206000206000905b858210610ce8575081016020019350610c0c81610bfb565b6001816020925483858701015201910190610cd0565b60ff191660208086019190915292151560051b84019092019550610c0c9150829050610bfb565b346100fc5760203660031901126100fc576001600160a01b03600435818116918282036100fc577f6f475c5b05d45723760ec7d29f67ac6d2eb4608c52801d3a57e2064595a3b2b492336000526005602052610d8860ff60406000205416610f4f565b600080546001600160a01b031916919091179055600154604080516001600160a01b03948516815292821693909316602083015260a01c60ff1615159181019190915280606081016106c9565b346100fc5760203660031901126100fc576001600160a01b03600435818116918282036100fc576106c960ff927f6f475c5b05d45723760ec7d29f67ac6d2eb4608c52801d3a57e2064595a3b2b494336000526005602052610e3d8560406000205416610f4f565b6bffffffffffffffffffffffff60a01b60015416179283600155600054169060405194859460a01c169184919392604091606084019560018060a01b0380921685521660208401521515910152565b346100fc5760203660031901126100fc576004356001600160a01b03811691908290036100fc576020916000526005825260ff6040600020541615158152f35b9060038210156105b55752565b60005b838110610eec5750506000910152565b8181015183820152602001610edc565b90602091610f1581518092818552858086019101610ed9565b601f01601f1916010190565b9181601f840112156100fc5782359167ffffffffffffffff83116100fc57602083818601950101116100fc57565b15610f5657565b60405162461bcd60e51b815260206004820152601460248201527323b437b9ba26b7b2329d103737ba1030b236b4b760611b6044820152606490fd5b610140810190811067ffffffffffffffff82111761059f57604052565b90601f8019910116810190811067ffffffffffffffff82111761059f57604052565b90600182811c92168015611001575b6020831014610feb57565b634e487b7160e01b600052602260045260246000fd5b91607f1691610fe0565b9060038110156105b55760ff80198354169116179055565b90601f811161103157505050565b6000916000526020600020906020601f850160051c8301941061106f575b601f0160051c01915b82811061106457505050565b818155600101611058565b909250829061104f565b92919267ffffffffffffffff821161059f57604051916110a3601f8201601f191660200184610faf565b8294818452818301116100fc57828160209384600096013701015256fea2646970667358221220babaa68030ff61505572dbebff6c09ae181045ab82934341c7bba158f7e91cf964736f6c63430008180033","opcodes":"PUSH1 0x40 PUSH1 0x80 DUP2 MSTORE CALLVALUE PUSH3 0x153 JUMPI PUSH3 0x1330 SWAP1 DUP2 CODESIZE SUB DUP1 PUSH3 0x1F DUP2 PUSH3 0x158 JUMP JUMPDEST SWAP4 DUP5 CODECOPY DUP3 ADD DUP2 DUP4 DUP3 SUB SLT PUSH3 0x153 JUMPI DUP3 MLOAD PUSH1 0x1 PUSH1 0x1 PUSH1 0x40 SHL SUB SWAP4 SWAP1 DUP5 DUP2 GT PUSH3 0x153 JUMPI DUP3 PUSH3 0x50 SWAP2 DUP4 ADD PUSH3 0x194 JUMP JUMPDEST SWAP2 PUSH1 0x20 SWAP5 PUSH1 0x20 DUP4 ADD MLOAD SWAP1 DUP2 GT PUSH3 0x153 JUMPI PUSH3 0x6D SWAP3 ADD PUSH3 0x194 JUMP JUMPDEST PUSH1 0x1 DUP1 SLOAD PUSH1 0xFF PUSH1 0xA0 SHL NOT AND PUSH1 0x1 PUSH1 0xA0 SHL OR DUP2 SSTORE SWAP1 SWAP4 SWAP1 SWAP2 PUSH1 0x0 DUP4 JUMPDEST PUSH3 0x10A JUMPI JUMPDEST POP POP DUP2 SWAP3 SWAP4 DUP3 PUSH1 0x0 SWAP1 JUMPDEST PUSH3 0xC5 JUMPI JUMPDEST DUP6 DUP5 CALLER PUSH1 0x0 MSTORE PUSH1 0x5 PUSH1 0x20 MSTORE DUP2 PUSH1 0x0 KECCAK256 SWAP1 PUSH1 0xFF NOT DUP3 SLOAD AND OR SWAP1 SSTORE MLOAD PUSH2 0x10F6 SWAP1 DUP2 PUSH3 0x23A DUP3 CODECOPY RETURN JUMPDEST DUP2 MLOAD DUP2 LT ISZERO PUSH3 0x104 JUMPI DUP4 SWAP1 PUSH1 0x1 PUSH1 0x1 PUSH1 0xA0 SHL SUB PUSH3 0xE5 DUP3 DUP6 PUSH3 0x20E JUMP JUMPDEST MLOAD AND PUSH1 0x0 MSTORE PUSH1 0x5 DUP5 MSTORE DUP7 PUSH1 0x0 KECCAK256 DUP3 PUSH1 0xFF NOT DUP3 SLOAD AND OR SWAP1 SSTORE ADD DUP4 PUSH3 0x98 JUMP JUMPDEST PUSH3 0x9E JUMP JUMPDEST DUP2 MLOAD DUP2 LT ISZERO PUSH3 0x14D JUMPI DUP4 SWAP2 SWAP1 DUP3 SWAP1 PUSH1 0x1 PUSH1 0x1 PUSH1 0xA0 SHL SUB PUSH3 0x12D DUP3 DUP6 PUSH3 0x20E JUMP JUMPDEST MLOAD AND PUSH1 0x0 MSTORE PUSH1 0x4 DUP6 MSTORE DUP7 PUSH1 0x0 KECCAK256 DUP3 PUSH1 0xFF NOT DUP3 SLOAD AND OR SWAP1 SSTORE ADD SWAP1 SWAP2 PUSH3 0x88 JUMP JUMPDEST PUSH3 0x8E JUMP JUMPDEST PUSH1 0x0 DUP1 REVERT JUMPDEST PUSH1 0x40 MLOAD SWAP2 SWAP1 PUSH1 0x1F ADD PUSH1 0x1F NOT AND DUP3 ADD PUSH1 0x1 PUSH1 0x1 PUSH1 0x40 SHL SUB DUP2 GT DUP4 DUP3 LT OR PUSH3 0x17E JUMPI PUSH1 0x40 MSTORE JUMP JUMPDEST PUSH4 0x4E487B71 PUSH1 0xE0 SHL PUSH1 0x0 MSTORE PUSH1 0x41 PUSH1 0x4 MSTORE PUSH1 0x24 PUSH1 0x0 REVERT JUMPDEST DUP2 PUSH1 0x1F DUP3 ADD SLT ISZERO PUSH3 0x153 JUMPI DUP1 MLOAD SWAP2 PUSH1 0x20 SWAP2 PUSH1 0x1 PUSH1 0x1 PUSH1 0x40 SHL SUB DUP5 GT PUSH3 0x17E JUMPI DUP4 PUSH1 0x5 SHL SWAP1 DUP4 DUP1 PUSH3 0x1C9 DUP2 DUP6 ADD PUSH3 0x158 JUMP JUMPDEST DUP1 SWAP8 DUP2 MSTORE ADD SWAP3 DUP3 ADD ADD SWAP3 DUP4 GT PUSH3 0x153 JUMPI DUP4 ADD SWAP1 JUMPDEST DUP3 DUP3 LT PUSH3 0x1ED JUMPI POP POP POP POP SWAP1 JUMP JUMPDEST DUP2 MLOAD PUSH1 0x1 PUSH1 0x1 PUSH1 0xA0 SHL SUB DUP2 AND DUP2 SUB PUSH3 0x153 JUMPI DUP2 MSTORE SWAP1 DUP4 ADD SWAP1 DUP4 ADD PUSH3 0x1DE JUMP JUMPDEST DUP1 MLOAD DUP3 LT ISZERO PUSH3 0x223 JUMPI PUSH1 0x20 SWAP2 PUSH1 0x5 SHL ADD ADD SWAP1 JUMP JUMPDEST PUSH4 0x4E487B71 PUSH1 0xE0 SHL PUSH1 0x0 MSTORE PUSH1 0x32 PUSH1 0x4 MSTORE PUSH1 0x24 PUSH1 0x0 REVERT INVALID PUSH1 0x80 DUP1 PUSH1 0x40 MSTORE PUSH1 0x4 CALLDATASIZE LT ISZERO PUSH2 0x13 JUMPI PUSH1 0x0 DUP1 REVERT JUMPDEST PUSH1 0x0 CALLDATALOAD PUSH1 0xE0 SHR SWAP1 DUP2 PUSH4 0x429B62E5 EQ PUSH2 0xE8C JUMPI POP DUP1 PUSH4 0x57686038 EQ PUSH2 0xDD5 JUMPI DUP1 PUSH4 0x6A1330EA EQ PUSH2 0xD25 JUMPI DUP1 PUSH4 0x6BBC379D EQ PUSH2 0xAF6 JUMPI DUP1 PUSH4 0x7910867B EQ PUSH2 0xAB4 JUMPI DUP1 PUSH4 0x822FA8CC EQ PUSH2 0xA8B JUMPI DUP1 PUSH4 0x826FA8EB EQ PUSH2 0x7A7 JUMPI DUP1 PUSH4 0x84E79842 EQ PUSH2 0x74C JUMPI DUP1 PUSH4 0x97A6278E EQ PUSH2 0x6F4 JUMPI DUP1 PUSH4 0x9CC1AB32 EQ PUSH2 0x6CE JUMPI DUP1 PUSH4 0xAD64D6CB EQ PUSH2 0x626 JUMPI DUP1 PUSH4 0xBC95AB1B EQ PUSH2 0x12A JUMPI DUP1 PUSH4 0xD50507FD EQ PUSH2 0x101 JUMPI PUSH4 0xEFD76065 EQ PUSH2 0xB9 JUMPI PUSH1 0x0 DUP1 REVERT JUMPDEST CALLVALUE PUSH2 0xFC JUMPI PUSH1 0x20 CALLDATASIZE PUSH1 0x3 NOT ADD SLT PUSH2 0xFC JUMPI PUSH1 0x4 CALLDATALOAD PUSH1 0x1 PUSH1 0x1 PUSH1 0xA0 SHL SUB DUP2 AND SWAP1 DUP2 SWAP1 SUB PUSH2 0xFC JUMPI PUSH1 0x0 MSTORE PUSH1 0x4 PUSH1 0x20 MSTORE PUSH1 0x20 PUSH1 0xFF PUSH1 0x40 PUSH1 0x0 KECCAK256 SLOAD AND PUSH1 0x40 MLOAD SWAP1 ISZERO ISZERO DUP2 MSTORE RETURN JUMPDEST PUSH1 0x0 DUP1 REVERT JUMPDEST CALLVALUE PUSH2 0xFC JUMPI PUSH1 0x0 CALLDATASIZE PUSH1 0x3 NOT ADD SLT PUSH2 0xFC JUMPI PUSH1 0x0 SLOAD PUSH1 0x40 MLOAD PUSH1 0x1 PUSH1 0x1 PUSH1 0xA0 SHL SUB SWAP1 SWAP2 AND DUP2 MSTORE PUSH1 0x20 SWAP1 RETURN JUMPDEST CALLVALUE PUSH2 0xFC JUMPI PUSH1 0x20 CALLDATASIZE PUSH1 0x3 NOT ADD SLT PUSH2 0xFC JUMPI PUSH1 0x4 CALLDATALOAD PUSH8 0xFFFFFFFFFFFFFFFF DUP2 GT PUSH2 0xFC JUMPI PUSH2 0x15B SWAP1 CALLDATASIZE SWAP1 PUSH1 0x4 ADD PUSH2 0xF21 JUMP JUMPDEST CALLER PUSH1 0x0 MSTORE PUSH1 0x4 PUSH1 0x20 MSTORE PUSH1 0xFF PUSH1 0x40 PUSH1 0x0 KECCAK256 SLOAD AND ISZERO PUSH2 0x5E1 JUMPI PUSH1 0x2 SLOAD SWAP1 PUSH1 0x0 NOT DUP3 EQ PUSH2 0x5CB JUMPI PUSH1 0x1 DUP3 ADD PUSH1 0x2 SSTORE PUSH2 0x191 CALLDATASIZE DUP3 DUP6 PUSH2 0x1079 JUMP JUMPDEST PUSH1 0x20 DUP2 MLOAD SWAP2 ADD KECCAK256 SWAP3 PUSH1 0x40 MLOAD SWAP4 PUSH2 0x1A6 DUP6 PUSH2 0xF92 JUMP JUMPDEST PUSH1 0x1 DUP5 ADD DUP6 MSTORE CALLER PUSH1 0x20 DUP7 ADD MSTORE PUSH1 0x40 DUP6 ADD MSTORE PUSH1 0x0 PUSH1 0x60 DUP6 ADD MSTORE PUSH1 0x0 PUSH1 0x80 DUP6 ADD MSTORE PUSH1 0x0 PUSH1 0xA0 DUP6 ADD MSTORE PUSH1 0x0 PUSH1 0xC0 DUP6 ADD MSTORE PUSH1 0x40 MLOAD DUP1 PUSH1 0x20 DUP2 ADD LT PUSH8 0xFFFFFFFFFFFFFFFF PUSH1 0x20 DUP4 ADD GT OR PUSH2 0x59F JUMPI PUSH1 0x20 DUP2 ADD PUSH1 0x40 MSTORE PUSH1 0x0 DUP2 MSTORE PUSH1 0xE0 DUP6 ADD MSTORE TIMESTAMP PUSH2 0x100 DUP6 ADD MSTORE PUSH1 0x0 PUSH2 0x120 DUP6 ADD MSTORE PUSH1 0x1 DUP4 ADD PUSH1 0x0 MSTORE PUSH1 0x3 PUSH1 0x20 MSTORE PUSH1 0x40 PUSH1 0x0 KECCAK256 DUP5 MLOAD DUP2 SSTORE PUSH1 0x1 DUP2 ADD PUSH1 0x1 DUP1 PUSH1 0xA0 SHL SUB PUSH1 0x20 DUP8 ADD MLOAD AND PUSH12 0xFFFFFFFFFFFFFFFFFFFFFFFF PUSH1 0xA0 SHL DUP3 SLOAD AND OR SWAP1 SSTORE PUSH1 0x40 DUP6 ADD MLOAD PUSH1 0x2 DUP3 ADD SSTORE PUSH1 0x60 DUP6 ADD MLOAD PUSH1 0x3 DUP3 ADD SSTORE PUSH1 0x80 DUP6 ADD MLOAD PUSH1 0x3 DUP2 LT ISZERO PUSH2 0x5B5 JUMPI PUSH2 0x279 SWAP1 PUSH1 0x4 DUP4 ADD PUSH2 0x100B JUMP JUMPDEST PUSH1 0xA0 DUP6 ADD MLOAD PUSH1 0x5 DUP2 LT ISZERO PUSH2 0x5B5 JUMPI PUSH2 0xFF00 PUSH1 0x4 DUP4 ADD SLOAD SWAP2 PUSH1 0x8 SHL AND SWAP1 PUSH2 0xFF00 NOT AND OR PUSH1 0x4 DUP3 ADD SSTORE PUSH1 0xC0 DUP6 ADD MLOAD PUSH1 0x5 DUP3 ADD SSTORE PUSH1 0xE0 DUP6 ADD MLOAD SWAP5 DUP6 MLOAD PUSH8 0xFFFFFFFFFFFFFFFF DUP2 GT PUSH2 0x59F JUMPI PUSH1 0x20 SWAP7 PUSH2 0x2DE DUP3 PUSH2 0x2D5 PUSH1 0x6 DUP8 ADD SLOAD PUSH2 0xFD1 JUMP JUMPDEST PUSH1 0x6 DUP8 ADD PUSH2 0x1023 JUMP JUMPDEST DUP8 SWAP1 PUSH1 0x1F DUP4 GT PUSH1 0x1 EQ PUSH2 0x52B JUMPI DUP3 PUSH2 0x120 SWAP4 PUSH1 0x8 SWAP6 SWAP4 PUSH2 0x315 SWAP4 PUSH1 0x0 SWAP3 PUSH2 0x520 JUMPI JUMPDEST POP POP DUP2 PUSH1 0x1 SHL SWAP2 PUSH1 0x0 NOT SWAP1 PUSH1 0x3 SHL SHR NOT AND OR SWAP1 JUMP JUMPDEST PUSH1 0x6 DUP6 ADD SSTORE JUMPDEST PUSH2 0x100 DUP2 ADD MLOAD PUSH1 0x7 DUP6 ADD SSTORE ADD MLOAD SWAP2 ADD SSTORE PUSH32 0x749320A3AC6D6D7AA4A1A1EE98AAFE3DA6C0155FA5A0B887E085AC3E6CB1A8C9 PUSH1 0xA0 PUSH2 0x359 CALLDATASIZE DUP6 DUP6 PUSH2 0x1079 JUMP JUMPDEST DUP7 DUP2 MLOAD SWAP2 ADD KECCAK256 PUSH1 0x1 DUP1 DUP4 SHL SUB PUSH1 0x0 SLOAD AND PUSH1 0x40 MLOAD SWAP2 PUSH1 0x1 DUP9 ADD DUP4 MSTORE CALLER DUP10 DUP5 ADD MSTORE PUSH1 0x40 DUP4 ADD MSTORE PUSH1 0x60 DUP3 ADD MSTORE TIMESTAMP PUSH1 0x80 DUP3 ADD MSTORE LOG1 PUSH1 0x1 SLOAD PUSH1 0x1 PUSH1 0x1 PUSH1 0xA0 SHL SUB AND PUSH2 0x461 JUMPI JUMPDEST PUSH1 0x0 SLOAD PUSH1 0x1 PUSH1 0x1 PUSH1 0xA0 SHL SUB AND ISZERO PUSH2 0x426 JUMPI PUSH2 0x3DB PUSH2 0x417 SWAP2 PUSH32 0x2342918DC59357522643FD6FEF648671B84AAD862D87369A2ED1307FC2D751C SWAP4 CALLDATASIZE SWAP2 PUSH2 0x1079 JUMP JUMPDEST PUSH1 0x1 DUP5 ADD PUSH1 0x0 MSTORE PUSH1 0x3 DUP6 MSTORE PUSH1 0x4 PUSH1 0x40 PUSH1 0x0 KECCAK256 ADD PUSH2 0x200 PUSH2 0xFF00 NOT DUP3 SLOAD AND OR SWAP1 SSTORE PUSH1 0x40 MLOAD SWAP2 DUP3 SWAP2 PUSH1 0x1 DUP7 ADD DUP4 MSTORE PUSH1 0x40 DUP8 DUP5 ADD MSTORE PUSH1 0x40 DUP4 ADD SWAP1 PUSH2 0xEFC JUMP JUMPDEST SUB SWAP1 LOG1 JUMPDEST PUSH1 0x1 PUSH1 0x40 MLOAD SWAP2 ADD DUP2 MSTORE RETURN JUMPDEST POP POP PUSH1 0xFF PUSH1 0x1 SLOAD PUSH1 0xA0 SHR AND PUSH2 0x41B JUMPI PUSH1 0x1 DUP2 ADD PUSH1 0x0 MSTORE PUSH1 0x3 DUP3 MSTORE PUSH1 0x40 PUSH1 0x0 KECCAK256 PUSH1 0x4 DUP2 ADD PUSH2 0x300 PUSH2 0xFF00 NOT DUP3 SLOAD AND OR SWAP1 SSTORE PUSH1 0x8 TIMESTAMP SWAP2 ADD SSTORE PUSH2 0x41B JUMP JUMPDEST PUSH2 0x46C CALLDATASIZE DUP4 DUP4 PUSH2 0x1079 JUMP JUMPDEST PUSH1 0x1 DUP5 ADD PUSH1 0x0 MSTORE PUSH1 0x3 DUP6 MSTORE PUSH1 0x4 PUSH1 0x40 PUSH1 0x0 KECCAK256 ADD PUSH2 0x100 PUSH2 0xFF00 NOT DUP3 SLOAD AND OR SWAP1 SSTORE PUSH1 0x40 MLOAD PUSH2 0x4CB PUSH1 0x2A DUP3 DUP9 DUP2 ADD SWAP5 PUSH10 0x39B0B734BA34BD32B21D PUSH1 0xB1 SHL DUP7 MSTORE PUSH2 0x4BB DUP2 MLOAD DUP1 SWAP3 DUP13 DUP7 DUP7 ADD SWAP2 ADD PUSH2 0xED9 JUMP JUMPDEST DUP2 ADD SUB PUSH1 0xA DUP2 ADD DUP5 MSTORE ADD DUP3 PUSH2 0xFAF JUMP JUMPDEST MLOAD SWAP1 KECCAK256 PUSH1 0x1 DUP5 ADD PUSH1 0x0 MSTORE PUSH1 0x3 DUP6 MSTORE PUSH1 0x3 PUSH1 0x40 PUSH1 0x0 KECCAK256 ADD SSTORE PUSH32 0x8CF3C2D55BA54BC9A0CF5DEB409A8F7DF0BC0C6735751A3EBA6D7E04EFB71E4B PUSH1 0x60 PUSH1 0x40 MLOAD PUSH1 0x1 DUP7 ADD DUP2 MSTORE CALLER DUP8 DUP3 ADD MSTORE PUSH1 0x1 PUSH1 0x40 DUP3 ADD MSTORE LOG1 PUSH2 0x39A JUMP JUMPDEST ADD MLOAD SWAP1 POP DUP12 DUP1 PUSH2 0x300 JUMP JUMPDEST SWAP1 PUSH1 0x6 DUP6 ADD PUSH1 0x0 MSTORE DUP9 PUSH1 0x0 KECCAK256 SWAP2 PUSH1 0x0 JUMPDEST PUSH1 0x1F NOT DUP6 AND DUP2 LT PUSH2 0x588 JUMPI POP SWAP3 PUSH1 0x8 SWAP5 SWAP3 PUSH1 0x1 SWAP3 PUSH2 0x120 SWAP6 DUP4 PUSH1 0x1F NOT DUP2 AND LT PUSH2 0x56F JUMPI JUMPDEST POP POP POP DUP2 SHL ADD PUSH1 0x6 DUP6 ADD SSTORE PUSH2 0x31B JUMP JUMPDEST ADD MLOAD PUSH1 0x0 NOT PUSH1 0xF8 DUP5 PUSH1 0x3 SHL AND SHR NOT AND SWAP1 SSTORE DUP11 DUP1 DUP1 PUSH2 0x55F JUMP JUMPDEST SWAP2 SWAP3 DUP11 PUSH1 0x1 DUP2 SWAP3 DUP7 DUP6 ADD MLOAD DUP2 SSTORE ADD SWAP5 ADD SWAP3 ADD PUSH2 0x53B JUMP JUMPDEST PUSH4 0x4E487B71 PUSH1 0xE0 SHL PUSH1 0x0 MSTORE PUSH1 0x41 PUSH1 0x4 MSTORE PUSH1 0x24 PUSH1 0x0 REVERT JUMPDEST PUSH4 0x4E487B71 PUSH1 0xE0 SHL PUSH1 0x0 MSTORE PUSH1 0x21 PUSH1 0x4 MSTORE PUSH1 0x24 PUSH1 0x0 REVERT JUMPDEST PUSH4 0x4E487B71 PUSH1 0xE0 SHL PUSH1 0x0 MSTORE PUSH1 0x11 PUSH1 0x4 MSTORE PUSH1 0x24 PUSH1 0x0 REVERT JUMPDEST PUSH1 0x40 MLOAD PUSH3 0x461BCD PUSH1 0xE5 SHL DUP2 MSTORE PUSH1 0x20 PUSH1 0x4 DUP3 ADD MSTORE PUSH1 0x1F PUSH1 0x24 DUP3 ADD MSTORE PUSH32 0x47686F73744D6F64653A206167656E74206E6F7420617574686F72697A656400 PUSH1 0x44 DUP3 ADD MSTORE PUSH1 0x64 SWAP1 REVERT JUMPDEST CALLVALUE PUSH2 0xFC JUMPI PUSH1 0x20 CALLDATASIZE PUSH1 0x3 NOT ADD SLT PUSH2 0xFC JUMPI PUSH1 0x4 CALLDATALOAD DUP1 ISZERO ISZERO SWAP1 DUP2 DUP2 SUB PUSH2 0xFC JUMPI PUSH32 0x6F475C5B05D45723760EC7D29F67AC6D2EB4608C52801D3A57E2064595A3B2B4 SWAP2 CALLER PUSH1 0x0 MSTORE PUSH1 0x5 PUSH1 0x20 MSTORE PUSH2 0x681 PUSH1 0xFF PUSH1 0x40 PUSH1 0x0 KECCAK256 SLOAD AND PUSH2 0xF4F JUMP JUMPDEST PUSH1 0x1 DUP1 SLOAD PUSH1 0xFF PUSH1 0xA0 SHL NOT DUP2 AND PUSH1 0xA0 SWAP4 SWAP1 SWAP4 SHL PUSH1 0xFF PUSH1 0xA0 SHL AND SWAP3 SWAP1 SWAP3 OR SWAP1 SSTORE PUSH1 0x0 SLOAD PUSH1 0x40 DUP1 MLOAD PUSH1 0x1 PUSH1 0x1 PUSH1 0xA0 SHL SUB SWAP3 DUP4 AND DUP2 MSTORE SWAP2 SWAP1 SWAP3 AND PUSH1 0x20 DUP3 ADD MSTORE SWAP2 ISZERO ISZERO SWAP1 DUP3 ADD MSTORE DUP1 PUSH1 0x60 DUP2 ADD JUMPDEST SUB SWAP1 LOG1 STOP JUMPDEST CALLVALUE PUSH2 0xFC JUMPI PUSH1 0x0 CALLDATASIZE PUSH1 0x3 NOT ADD SLT PUSH2 0xFC JUMPI PUSH1 0x20 PUSH1 0xFF PUSH1 0x1 SLOAD PUSH1 0xA0 SHR AND PUSH1 0x40 MLOAD SWAP1 ISZERO ISZERO DUP2 MSTORE RETURN JUMPDEST CALLVALUE PUSH2 0xFC JUMPI PUSH1 0x20 CALLDATASIZE PUSH1 0x3 NOT ADD SLT PUSH2 0xFC JUMPI PUSH1 0x4 CALLDATALOAD PUSH1 0x1 PUSH1 0x1 PUSH1 0xA0 SHL SUB DUP2 AND SWAP1 DUP2 SWAP1 SUB PUSH2 0xFC JUMPI CALLER PUSH1 0x0 MSTORE PUSH1 0x5 PUSH1 0x20 MSTORE PUSH2 0x734 PUSH1 0xFF PUSH1 0x40 PUSH1 0x0 KECCAK256 SLOAD AND PUSH2 0xF4F JUMP JUMPDEST PUSH1 0x0 SWAP1 DUP2 MSTORE PUSH1 0x4 PUSH1 0x20 MSTORE PUSH1 0x40 SWAP1 KECCAK256 DUP1 SLOAD PUSH1 0xFF NOT AND SWAP1 SSTORE STOP JUMPDEST CALLVALUE PUSH2 0xFC JUMPI PUSH1 0x20 CALLDATASIZE PUSH1 0x3 NOT ADD SLT PUSH2 0xFC JUMPI PUSH1 0x4 CALLDATALOAD PUSH1 0x1 PUSH1 0x1 PUSH1 0xA0 SHL SUB DUP2 AND SWAP1 DUP2 SWAP1 SUB PUSH2 0xFC JUMPI CALLER PUSH1 0x0 MSTORE PUSH1 0x5 PUSH1 0x20 MSTORE PUSH2 0x78C PUSH1 0xFF PUSH1 0x40 PUSH1 0x0 KECCAK256 SLOAD AND PUSH2 0xF4F JUMP JUMPDEST PUSH1 0x0 SWAP1 DUP2 MSTORE PUSH1 0x4 PUSH1 0x20 MSTORE PUSH1 0x40 SWAP1 KECCAK256 DUP1 SLOAD PUSH1 0xFF NOT AND PUSH1 0x1 OR SWAP1 SSTORE STOP JUMPDEST CALLVALUE PUSH2 0xFC JUMPI PUSH1 0x80 CALLDATASIZE PUSH1 0x3 NOT ADD SLT PUSH2 0xFC JUMPI PUSH1 0x24 CALLDATALOAD PUSH1 0x3 PUSH1 0x4 CALLDATALOAD DUP2 DUP4 LT ISZERO PUSH2 0xFC JUMPI PUSH1 0x44 CALLDATALOAD PUSH1 0x64 CALLDATALOAD SWAP4 PUSH8 0xFFFFFFFFFFFFFFFF SWAP5 DUP6 DUP2 GT PUSH2 0xFC JUMPI PUSH2 0x7EE SWAP1 CALLDATASIZE SWAP1 PUSH1 0x4 ADD PUSH2 0xF21 JUMP JUMPDEST PUSH1 0x0 SLOAD SWAP1 SWAP4 SWAP2 SWAP3 SWAP1 PUSH1 0x1 PUSH1 0x1 PUSH1 0xA0 SHL SUB AND CALLER SUB PUSH2 0xA46 JUMPI DUP5 PUSH1 0x0 MSTORE PUSH1 0x20 SWAP6 DUP1 DUP8 MSTORE PUSH1 0x40 PUSH1 0x0 KECCAK256 SLOAD ISZERO PUSH2 0xA01 JUMPI DUP6 PUSH1 0x0 MSTORE DUP1 DUP8 MSTORE PUSH2 0x832 DUP3 PUSH1 0x4 PUSH1 0x40 PUSH1 0x0 KECCAK256 ADD PUSH2 0x100B JUMP JUMPDEST DUP6 PUSH1 0x0 MSTORE DUP1 DUP8 MSTORE PUSH1 0x6 PUSH1 0x40 PUSH1 0x0 KECCAK256 DUP5 PUSH1 0x5 DUP3 ADD SSTORE ADD SWAP8 DUP6 GT PUSH2 0x59F JUMPI PUSH2 0x862 DUP6 PUSH2 0x85C DUP11 SLOAD PUSH2 0xFD1 JUMP JUMPDEST DUP11 PUSH2 0x1023 JUMP JUMPDEST PUSH1 0x0 PUSH1 0x1F DUP7 GT PUSH1 0x1 EQ PUSH2 0x971 JUMPI DUP6 SWAP5 SWAP3 DUP6 SWAP5 SWAP3 PUSH32 0xC05A648884BFA9444BD6557AE6E84E2CA56FFB5BF0E71E3CC2ECAB24B5242A55 SWAP11 PUSH2 0x8BF DUP8 PUSH1 0xA0 SWAP12 SWAP11 PUSH2 0x90B SWAP7 PUSH1 0x0 SWAP2 PUSH2 0x966 JUMPI JUMPDEST POP DUP2 PUSH1 0x1 SHL SWAP2 PUSH1 0x0 NOT SWAP1 PUSH1 0x3 SHL SHR NOT AND OR SWAP1 JUMP JUMPDEST SWAP1 SSTORE JUMPDEST DUP8 PUSH1 0x0 MSTORE DUP10 MSTORE PUSH1 0x4 PUSH1 0x40 PUSH1 0x0 KECCAK256 TIMESTAMP PUSH1 0x8 DUP3 ADD SSTORE PUSH1 0xFF PUSH1 0x1 SLOAD DUP12 SHR AND PUSH1 0x0 EQ PUSH2 0x953 JUMPI PUSH1 0x2 DUP4 SUB PUSH2 0x938 JUMPI ADD DUP1 SLOAD PUSH2 0xFF00 NOT AND PUSH2 0x400 OR SWAP1 SSTORE JUMPDEST PUSH1 0x40 MLOAD SWAP9 DUP10 SWAP8 DUP9 MSTORE DUP8 ADD SWAP1 PUSH2 0xECC JUMP JUMPDEST PUSH1 0x40 DUP6 ADD MSTORE PUSH1 0x80 PUSH1 0x60 DUP6 ADD MSTORE DUP2 PUSH1 0x80 DUP6 ADD MSTORE DUP5 DUP5 ADD CALLDATACOPY PUSH1 0x0 DUP3 DUP3 ADD DUP5 ADD MSTORE PUSH1 0x1F ADD PUSH1 0x1F NOT AND DUP2 ADD SUB ADD SWAP1 LOG1 STOP JUMPDEST PUSH1 0x1 DUP4 SUB PUSH2 0x953 JUMPI ADD DUP1 SLOAD PUSH2 0xFF00 NOT AND PUSH2 0x400 OR SWAP1 SSTORE PUSH2 0x8FB JUMP JUMPDEST ADD DUP1 SLOAD PUSH2 0xFF00 NOT AND PUSH2 0x300 OR SWAP1 SSTORE PUSH2 0x8FB JUMP JUMPDEST SWAP1 POP DUP9 ADD CALLDATALOAD DUP16 PUSH2 0x8AB JUMP JUMPDEST PUSH1 0x1F NOT DUP7 AND SWAP1 DUP10 PUSH1 0x0 MSTORE DUP9 PUSH1 0x0 KECCAK256 SWAP2 PUSH1 0x0 JUMPDEST DUP2 DUP2 LT PUSH2 0x9EA JUMPI POP SWAP3 PUSH32 0xC05A648884BFA9444BD6557AE6E84E2CA56FFB5BF0E71E3CC2ECAB24B5242A55 SWAP11 PUSH2 0x90B SWAP4 DUP10 SWAP9 SWAP7 SWAP4 DUP10 PUSH1 0xA0 SWAP13 SWAP12 SWAP10 SWAP8 LT PUSH2 0x9D2 JUMPI JUMPDEST POP POP PUSH1 0x1 DUP8 DUP2 SHL ADD SWAP1 SSTORE PUSH2 0x8C2 JUMP JUMPDEST DUP8 ADD CALLDATALOAD PUSH1 0x0 NOT DUP10 DUP6 SHL PUSH1 0xF8 AND SHR NOT AND SWAP1 SSTORE DUP13 DUP1 PUSH2 0x9C3 JUMP JUMPDEST SWAP2 SWAP3 DUP11 PUSH1 0x1 DUP2 SWAP3 DUP7 DUP12 ADD CALLDATALOAD DUP2 SSTORE ADD SWAP5 ADD SWAP3 ADD PUSH2 0x983 JUMP JUMPDEST PUSH1 0x40 MLOAD PUSH3 0x461BCD PUSH1 0xE5 SHL DUP2 MSTORE PUSH1 0x4 DUP2 ADD DUP9 SWAP1 MSTORE PUSH1 0x17 PUSH1 0x24 DUP3 ADD MSTORE PUSH32 0x47686F73744D6F64653A20696E76616C69642074784964000000000000000000 PUSH1 0x44 DUP3 ADD MSTORE PUSH1 0x64 SWAP1 REVERT JUMPDEST PUSH1 0x40 MLOAD PUSH3 0x461BCD PUSH1 0xE5 SHL DUP2 MSTORE PUSH1 0x20 PUSH1 0x4 DUP3 ADD MSTORE PUSH1 0x1B PUSH1 0x24 DUP3 ADD MSTORE PUSH32 0x47686F73744D6F64653A206F6E6C79207269736B206F7261636C650000000000 PUSH1 0x44 DUP3 ADD MSTORE PUSH1 0x64 SWAP1 REVERT JUMPDEST CALLVALUE PUSH2 0xFC JUMPI PUSH1 0x0 CALLDATASIZE PUSH1 0x3 NOT ADD SLT PUSH2 0xFC JUMPI PUSH1 0x1 SLOAD PUSH1 0x40 MLOAD PUSH1 0x1 PUSH1 0x1 PUSH1 0xA0 SHL SUB SWAP1 SWAP2 AND DUP2 MSTORE PUSH1 0x20 SWAP1 RETURN JUMPDEST CALLVALUE PUSH2 0xFC JUMPI PUSH1 0x20 CALLDATASIZE PUSH1 0x3 NOT ADD SLT PUSH2 0xFC JUMPI PUSH1 0x4 CALLDATALOAD PUSH1 0x0 MSTORE PUSH1 0x3 PUSH1 0x20 MSTORE PUSH1 0xFF PUSH1 0x4 PUSH1 0x40 PUSH1 0x0 KECCAK256 ADD SLOAD PUSH1 0x8 SHR AND PUSH1 0x5 DUP2 LT ISZERO PUSH2 0x5B5 JUMPI PUSH1 0x20 SWAP1 PUSH1 0x3 PUSH1 0x40 MLOAD SWAP2 EQ DUP2 MSTORE RETURN JUMPDEST CALLVALUE PUSH2 0xFC JUMPI PUSH1 0x20 CALLDATASIZE PUSH1 0x3 NOT ADD SLT PUSH2 0xFC JUMPI PUSH1 0x0 PUSH2 0x120 PUSH1 0x40 MLOAD PUSH2 0xB18 DUP2 PUSH2 0xF92 JUMP JUMPDEST DUP3 DUP2 MSTORE DUP3 PUSH1 0x20 DUP3 ADD MSTORE DUP3 PUSH1 0x40 DUP3 ADD MSTORE DUP3 PUSH1 0x60 DUP3 ADD MSTORE DUP3 PUSH1 0x80 DUP3 ADD MSTORE DUP3 PUSH1 0xA0 DUP3 ADD MSTORE DUP3 PUSH1 0xC0 DUP3 ADD MSTORE PUSH1 0x60 PUSH1 0xE0 DUP3 ADD MSTORE DUP3 PUSH2 0x100 DUP3 ADD MSTORE ADD MSTORE PUSH1 0x4 CALLDATALOAD PUSH1 0x0 MSTORE PUSH1 0x3 PUSH1 0x20 MSTORE PUSH1 0x40 PUSH1 0x0 KECCAK256 PUSH1 0x40 MLOAD PUSH2 0xB6B DUP2 PUSH2 0xF92 JUMP JUMPDEST DUP2 SLOAD DUP2 MSTORE PUSH1 0x1 DUP3 ADD SLOAD PUSH1 0x1 PUSH1 0x1 PUSH1 0xA0 SHL SUB AND PUSH1 0x20 DUP3 ADD MSTORE PUSH1 0x2 DUP3 ADD SLOAD PUSH1 0x40 DUP3 ADD MSTORE PUSH1 0x3 DUP1 DUP4 ADD SLOAD PUSH1 0x60 DUP4 ADD MSTORE PUSH1 0x4 DUP4 ADD SLOAD PUSH1 0xFF DUP2 AND SWAP2 DUP3 LT ISZERO PUSH2 0x5B5 JUMPI PUSH1 0xFF SWAP2 PUSH1 0x80 DUP5 ADD MSTORE PUSH1 0x8 SHR AND PUSH1 0x5 DUP2 LT ISZERO PUSH2 0x5B5 JUMPI PUSH1 0xA0 DUP3 ADD MSTORE PUSH1 0x5 DUP3 ADD SLOAD PUSH1 0xC0 DUP3 ADD MSTORE PUSH1 0x6 DUP3 ADD SWAP2 PUSH1 0x40 MLOAD PUSH1 0x0 SWAP4 DUP1 SLOAD SWAP1 PUSH2 0xBE3 DUP3 PUSH2 0xFD1 JUMP JUMPDEST DUP1 DUP5 MSTORE SWAP2 PUSH1 0x1 DUP2 AND SWAP1 DUP2 ISZERO PUSH2 0xCFE JUMPI POP PUSH1 0x1 EQ PUSH2 0xCC1 JUMPI JUMPDEST POP POP PUSH2 0xC0C DUP2 PUSH1 0x8 SWAP5 SWAP6 SUB DUP3 PUSH2 0xFAF JUMP JUMPDEST PUSH1 0xE0 DUP5 ADD MSTORE PUSH1 0x7 DUP2 ADD SLOAD PUSH2 0x100 DUP5 ADD MSTORE ADD SLOAD PUSH2 0x120 DUP3 ADD MSTORE PUSH1 0x40 MLOAD SWAP1 PUSH1 0x20 DUP3 MSTORE DUP1 MLOAD PUSH1 0x20 DUP4 ADD MSTORE PUSH1 0x1 DUP1 PUSH1 0xA0 SHL SUB PUSH1 0x20 DUP3 ADD MLOAD AND PUSH1 0x40 DUP4 ADD MSTORE PUSH1 0x40 DUP2 ADD MLOAD PUSH1 0x60 DUP4 ADD MSTORE PUSH1 0x60 DUP2 ADD MLOAD PUSH1 0x80 DUP4 ADD MSTORE PUSH2 0xC6B PUSH1 0x80 DUP3 ADD MLOAD PUSH1 0xA0 DUP5 ADD SWAP1 PUSH2 0xECC JUMP JUMPDEST PUSH1 0xA0 DUP2 ADD MLOAD SWAP1 PUSH1 0x5 DUP3 LT ISZERO PUSH2 0x5B5 JUMPI DUP3 SWAP2 PUSH1 0xC0 DUP4 ADD MSTORE PUSH1 0xC0 DUP2 ADD MLOAD PUSH1 0xE0 DUP4 ADD MSTORE PUSH1 0xE0 DUP2 ADD MLOAD PUSH2 0x120 PUSH2 0xCAC PUSH2 0x140 SWAP3 DUP4 PUSH2 0x100 DUP8 ADD MSTORE PUSH2 0x160 DUP7 ADD SWAP1 PUSH2 0xEFC JUMP JUMPDEST SWAP3 PUSH2 0x100 DUP2 ADD MLOAD DUP3 DUP7 ADD MSTORE ADD MLOAD SWAP1 DUP4 ADD MSTORE SUB SWAP1 RETURN JUMPDEST SWAP1 SWAP5 POP PUSH1 0x0 MSTORE PUSH1 0x20 PUSH1 0x0 KECCAK256 PUSH1 0x0 SWAP1 JUMPDEST DUP6 DUP3 LT PUSH2 0xCE8 JUMPI POP DUP2 ADD PUSH1 0x20 ADD SWAP4 POP PUSH2 0xC0C DUP2 PUSH2 0xBFB JUMP JUMPDEST PUSH1 0x1 DUP2 PUSH1 0x20 SWAP3 SLOAD DUP4 DUP6 DUP8 ADD ADD MSTORE ADD SWAP2 ADD SWAP1 PUSH2 0xCD0 JUMP JUMPDEST PUSH1 0xFF NOT AND PUSH1 0x20 DUP1 DUP7 ADD SWAP2 SWAP1 SWAP2 MSTORE SWAP3 ISZERO ISZERO PUSH1 0x5 SHL DUP5 ADD SWAP1 SWAP3 ADD SWAP6 POP PUSH2 0xC0C SWAP2 POP DUP3 SWAP1 POP PUSH2 0xBFB JUMP JUMPDEST CALLVALUE PUSH2 0xFC JUMPI PUSH1 0x20 CALLDATASIZE PUSH1 0x3 NOT ADD SLT PUSH2 0xFC JUMPI PUSH1 0x1 PUSH1 0x1 PUSH1 0xA0 SHL SUB PUSH1 0x4 CALLDATALOAD DUP2 DUP2 AND SWAP2 DUP3 DUP3 SUB PUSH2 0xFC JUMPI PUSH32 0x6F475C5B05D45723760EC7D29F67AC6D2EB4608C52801D3A57E2064595A3B2B4 SWAP3 CALLER PUSH1 0x0 MSTORE PUSH1 0x5 PUSH1 0x20 MSTORE PUSH2 0xD88 PUSH1 0xFF PUSH1 0x40 PUSH1 0x0 KECCAK256 SLOAD AND PUSH2 0xF4F JUMP JUMPDEST PUSH1 0x0 DUP1 SLOAD PUSH1 0x1 PUSH1 0x1 PUSH1 0xA0 SHL SUB NOT AND SWAP2 SWAP1 SWAP2 OR SWAP1 SSTORE PUSH1 0x1 SLOAD PUSH1 0x40 DUP1 MLOAD PUSH1 0x1 PUSH1 0x1 PUSH1 0xA0 SHL SUB SWAP5 DUP6 AND DUP2 MSTORE SWAP3 DUP3 AND SWAP4 SWAP1 SWAP4 AND PUSH1 0x20 DUP4 ADD MSTORE PUSH1 0xA0 SHR PUSH1 0xFF AND ISZERO ISZERO SWAP2 DUP2 ADD SWAP2 SWAP1 SWAP2 MSTORE DUP1 PUSH1 0x60 DUP2 ADD PUSH2 0x6C9 JUMP JUMPDEST CALLVALUE PUSH2 0xFC JUMPI PUSH1 0x20 CALLDATASIZE PUSH1 0x3 NOT ADD SLT PUSH2 0xFC JUMPI PUSH1 0x1 PUSH1 0x1 PUSH1 0xA0 SHL SUB PUSH1 0x4 CALLDATALOAD DUP2 DUP2 AND SWAP2 DUP3 DUP3 SUB PUSH2 0xFC JUMPI PUSH2 0x6C9 PUSH1 0xFF SWAP3 PUSH32 0x6F475C5B05D45723760EC7D29F67AC6D2EB4608C52801D3A57E2064595A3B2B4 SWAP5 CALLER PUSH1 0x0 MSTORE PUSH1 0x5 PUSH1 0x20 MSTORE PUSH2 0xE3D DUP6 PUSH1 0x40 PUSH1 0x0 KECCAK256 SLOAD AND PUSH2 0xF4F JUMP JUMPDEST PUSH12 0xFFFFFFFFFFFFFFFFFFFFFFFF PUSH1 0xA0 SHL PUSH1 0x1 SLOAD AND OR SWAP3 DUP4 PUSH1 0x1 SSTORE PUSH1 0x0 SLOAD AND SWAP1 PUSH1 0x40 MLOAD SWAP5 DUP6 SWAP5 PUSH1 0xA0 SHR AND SWAP2 DUP5 SWAP2 SWAP4 SWAP3 PUSH1 0x40 SWAP2 PUSH1 0x60 DUP5 ADD SWAP6 PUSH1 0x1 DUP1 PUSH1 0xA0 SHL SUB DUP1 SWAP3 AND DUP6 MSTORE AND PUSH1 0x20 DUP5 ADD MSTORE ISZERO ISZERO SWAP2 ADD MSTORE JUMP JUMPDEST CALLVALUE PUSH2 0xFC JUMPI PUSH1 0x20 CALLDATASIZE PUSH1 0x3 NOT ADD SLT PUSH2 0xFC JUMPI PUSH1 0x4 CALLDATALOAD PUSH1 0x1 PUSH1 0x1 PUSH1 0xA0 SHL SUB DUP2 AND SWAP2 SWAP1 DUP3 SWAP1 SUB PUSH2 0xFC JUMPI PUSH1 0x20 SWAP2 PUSH1 0x0 MSTORE PUSH1 0x5 DUP3 MSTORE PUSH1 0xFF PUSH1 0x40 PUSH1 0x0 KECCAK256 SLOAD AND ISZERO ISZERO DUP2 MSTORE RETURN JUMPDEST SWAP1 PUSH1 0x3 DUP3 LT ISZERO PUSH2 0x5B5 JUMPI MSTORE JUMP JUMPDEST PUSH1 0x0 JUMPDEST DUP4 DUP2 LT PUSH2 0xEEC JUMPI POP POP PUSH1 0x0 SWAP2 ADD MSTORE JUMP JUMPDEST DUP2 DUP2 ADD MLOAD DUP4 DUP3 ADD MSTORE PUSH1 0x20 ADD PUSH2 0xEDC JUMP JUMPDEST SWAP1 PUSH1 0x20 SWAP2 PUSH2 0xF15 DUP2 MLOAD DUP1 SWAP3 DUP2 DUP6 MSTORE DUP6 DUP1 DUP7 ADD SWAP2 ADD PUSH2 0xED9 JUMP JUMPDEST PUSH1 0x1F ADD PUSH1 0x1F NOT AND ADD ADD SWAP1 JUMP JUMPDEST SWAP2 DUP2 PUSH1 0x1F DUP5 ADD SLT ISZERO PUSH2 0xFC JUMPI DUP3 CALLDATALOAD SWAP2 PUSH8 0xFFFFFFFFFFFFFFFF DUP4 GT PUSH2 0xFC JUMPI PUSH1 0x20 DUP4 DUP2 DUP7 ADD SWAP6 ADD ADD GT PUSH2 0xFC JUMPI JUMP JUMPDEST ISZERO PUSH2 0xF56 JUMPI JUMP JUMPDEST PUSH1 0x40 MLOAD PUSH3 0x461BCD PUSH1 0xE5 SHL DUP2 MSTORE PUSH1 0x20 PUSH1 0x4 DUP3 ADD MSTORE PUSH1 0x14 PUSH1 0x24 DUP3 ADD MSTORE PUSH20 0x23B437B9BA26B7B2329D103737BA1030B236B4B7 PUSH1 0x61 SHL PUSH1 0x44 DUP3 ADD MSTORE PUSH1 0x64 SWAP1 REVERT JUMPDEST PUSH2 0x140 DUP2 ADD SWAP1 DUP2 LT PUSH8 0xFFFFFFFFFFFFFFFF DUP3 GT OR PUSH2 0x59F JUMPI PUSH1 0x40 MSTORE JUMP JUMPDEST SWAP1 PUSH1 0x1F DUP1 NOT SWAP2 ADD AND DUP2 ADD SWAP1 DUP2 LT PUSH8 0xFFFFFFFFFFFFFFFF DUP3 GT OR PUSH2 0x59F JUMPI PUSH1 0x40 MSTORE JUMP JUMPDEST SWAP1 PUSH1 0x1 DUP3 DUP2 SHR SWAP3 AND DUP1 ISZERO PUSH2 0x1001 JUMPI JUMPDEST PUSH1 0x20 DUP4 LT EQ PUSH2 0xFEB JUMPI JUMP JUMPDEST PUSH4 0x4E487B71 PUSH1 0xE0 SHL PUSH1 0x0 MSTORE PUSH1 0x22 PUSH1 0x4 MSTORE PUSH1 0x24 PUSH1 0x0 REVERT JUMPDEST SWAP2 PUSH1 0x7F AND SWAP2 PUSH2 0xFE0 JUMP JUMPDEST SWAP1 PUSH1 0x3 DUP2 LT ISZERO PUSH2 0x5B5 JUMPI PUSH1 0xFF DUP1 NOT DUP4 SLOAD AND SWAP2 AND OR SWAP1 SSTORE JUMP JUMPDEST SWAP1 PUSH1 0x1F DUP2 GT PUSH2 0x1031 JUMPI POP POP POP JUMP JUMPDEST PUSH1 0x0 SWAP2 PUSH1 0x0 MSTORE PUSH1 0x20 PUSH1 0x0 KECCAK256 SWAP1 PUSH1 0x20 PUSH1 0x1F DUP6 ADD PUSH1 0x5 SHR DUP4 ADD SWAP5 LT PUSH2 0x106F JUMPI JUMPDEST PUSH1 0x1F ADD PUSH1 0x5 SHR ADD SWAP2 JUMPDEST DUP3 DUP2 LT PUSH2 0x1064 JUMPI POP POP POP JUMP JUMPDEST DUP2 DUP2 SSTORE PUSH1 0x1 ADD PUSH2 0x1058 JUMP JUMPDEST SWAP1 SWAP3 POP DUP3 SWAP1 PUSH2 0x104F JUMP JUMPDEST SWAP3 SWAP2 SWAP3 PUSH8 0xFFFFFFFFFFFFFFFF DUP3 GT PUSH2 0x59F JUMPI PUSH1 0x40 MLOAD SWAP2 PUSH2 0x10A3 PUSH1 0x1F DUP3 ADD PUSH1 0x1F NOT AND PUSH1 0x20 ADD DUP5 PUSH2 0xFAF JUMP JUMPDEST DUP3 SWAP5 DUP2 DUP5 MSTORE DUP2 DUP4 ADD GT PUSH2 0xFC JUMPI DUP3 DUP2 PUSH1 0x20 SWAP4 DUP5 PUSH1 0x0 SWAP7 ADD CALLDATACOPY ADD ADD MSTORE JUMP INVALID LOG2 PUSH5 0x6970667358 0x22 SLT KECCAK256 0xBA 0xBA 0xA6 DUP1 ADDRESS SELFDESTRUCT PUSH2 0x5055 PUSH19 0xDBEBFF6C09AE181045AB82934341C7BBA158F7 0xE9 SHR 0xF9 PUSH5 0x736F6C6343 STOP ADDMOD XOR STOP CALLER "},"methodIdentifiers":{"addAgent(address)":"84e79842","admins(address)":"429b62e5","authorizedAgents(address)":"efd76065","enforcementEnabled()":"9cc1ab32","getTransactionStatus(uint256)":"6bbc379d","isApproved(uint256)":"7910867b","privacyProcessor()":"822fa8cc","receiveRiskAssessment(uint256,uint8,uint256,string)":"826fa8eb","removeAgent(address)":"97a6278e","riskOracle()":"d50507fd","setEnforcement(bool)":"ad64d6cb","setPrivacyProcessor(address)":"57686038","setRiskOracle(address)":"6a1330ea","submitTransaction(bytes)":"bc95ab1b"}}}}}