{"contracts/risk/AgentCatcherOracle.sol":{"AgentCatcherOracle":{"abi":[{"inputs":[{"internalType":"address","name":"_platform","type":"address"},{"internalType":"address","name":"_engine","type":"address"},{"internalType":"uint256","name":"_depositAmount","type":"uint256"}],"stateMutability":"nonpayable","type":"constructor"},{"inputs":[],"name":"LLM_AGENT_ID","outputs":[{"internalType":"uint256","name":"","type":"uint256"}],"stateMutability":"view","type":"function"},{"inputs":[],"name":"SOMNIA_PLATFORM","outputs":[{"internalType":"address","name":"","type":"address"}],"stateMutability":"view","type":"function"},{"inputs":[],"name":"depositAmount","outputs":[{"internalType":"uint256","name":"","type":"uint256"}],"stateMutability":"view","type":"function"},{"inputs":[],"name":"getRequiredDeposit","outputs":[{"internalType":"uint256","name":"","type":"uint256"}],"stateMutability":"view","type":"function"},{"inputs":[],"name":"ghostEngine","outputs":[{"internalType":"address","name":"","type":"address"}],"stateMutability":"view","type":"function"},{"inputs":[{"internalType":"uint256","name":"requestId","type":"uint256"},{"components":[{"internalType":"bytes","name":"result","type":"bytes"}],"internalType":"struct Response[]","name":"responses","type":"tuple[]"},{"internalType":"enum ResponseStatus","name":"status","type":"uint8"},{"components":[{"internalType":"uint256","name":"requestId","type":"uint256"},{"internalType":"uint256","name":"agentId","type":"uint256"},{"internalType":"address","name":"requester","type":"address"},{"internalType":"address","name":"callbackAddress","type":"address"},{"internalType":"bytes4","name":"callbackSelector","type":"bytes4"},{"internalType":"bytes","name":"payload","type":"bytes"},{"internalType":"uint256","name":"deposit","type":"uint256"},{"internalType":"uint256","name":"timestamp","type":"uint256"}],"internalType":"struct Request","name":"","type":"tuple"}],"name":"handleRiskResult","outputs":[],"stateMutability":"nonpayable","type":"function"},{"inputs":[{"internalType":"uint256","name":"","type":"uint256"}],"name":"processedRequests","outputs":[{"internalType":"bool","name":"","type":"bool"}],"stateMutability":"view","type":"function"},{"inputs":[{"internalType":"uint256","name":"txId","type":"uint256"},{"internalType":"bytes","name":"payload","type":"bytes"}],"name":"requestAssessment","outputs":[],"stateMutability":"nonpayable","type":"function"},{"inputs":[{"internalType":"uint256","name":"","type":"uint256"}],"name":"requestToTxId","outputs":[{"internalType":"uint256","name":"","type":"uint256"}],"stateMutability":"view","type":"function"},{"inputs":[{"internalType":"uint256","name":"","type":"uint256"}],"name":"ruleCategories","outputs":[{"internalType":"string","name":"","type":"string"}],"stateMutability":"view","type":"function"},{"inputs":[{"internalType":"string","name":"","type":"string"}],"name":"rules","outputs":[{"internalType":"string","name":"category","type":"string"},{"internalType":"bool","name":"enabled","type":"bool"},{"internalType":"uint256","name":"weight","type":"uint256"}],"stateMutability":"view","type":"function"},{"inputs":[{"internalType":"address","name":"_engine","type":"address"}],"name":"setEngine","outputs":[],"stateMutability":"nonpayable","type":"function"},{"inputs":[{"internalType":"uint256","name":"_amount","type":"uint256"}],"name":"updateDeposit","outputs":[],"stateMutability":"nonpayable","type":"function"},{"inputs":[{"internalType":"string","name":"category","type":"string"},{"internalType":"bool","name":"enabled","type":"bool"},{"internalType":"uint256","name":"weight","type":"uint256"}],"name":"updateRule","outputs":[],"stateMutability":"nonpayable","type":"function"}],"evm":{"bytecode":{"linkReferences":{},"object":"60a0346200038f57601f62001a8538819003918201601f1916830191906001600160401b03831184841017620003945781606092859260409586528339810103126200038f576200005082620003ea565b6020908262000061838601620003ea565b940151608091909152600080546001600160a01b0319166001600160a01b03909516949094178455600190815562000098620003ca565b60118152707472616e73616374696f6e5f76616c756560781b83820152620000bf620003aa565b94818652838601928084528587019660198852865197845187855b8281106200037c57505090620001046002928b019a898160049d8e815203019020935184620003ff565b838301965115159660ff199760ff8983541691161790555191015560059081549368010000000000000000948581101562000369578281018085558110156200035657906200015a9184865288862001620003ff565b6200019762000168620003ca565b601481527f726563697069656e745f72657075746174696f6e000000000000000000000000888201526200054d565b620001c9620001a5620003ca565b6012815271746f6b656e5f7269736b5f70726f66696c6560701b888201526200054d565b620001d3620003ca565b94601686527f6167656e745f6265686176696f725f7061747465726e000000000000000000008787015262000207620003aa565b9086825287820183815289830191600f83528a518a8d8b518a5b8d8282106200033c575050830190815282900301902093516002939291906200024b9086620003ff565b60ff86860192511515918354169116179055519101558154938410156200032957830180825583101562000316579184826200029194620002f1979694522001620003ff565b620002c36200029f620003ca565b60128152716e6574776f726b5f636f6e646974696f6e7360701b838201526200063a565b71707269766163795f636f6d706c69616e636560701b620002e3620003ca565b91601283528201526200063a565b516113e59081620006a082396080518181816104d1015281816108610152610d710152f35b634e487b7160e01b825260328752602482fd5b634e487b7160e01b835260418852602483fd5b849350908092949101015181850152018c918f9162000221565b634e487b7160e01b855260328a52602485fd5b634e487b7160e01b855260418a52602485fd5b818189010151818d0152018890620000da565b600080fd5b634e487b7160e01b600052604160045260246000fd5b60405190606082016001600160401b038111838210176200039457604052565b60408051919082016001600160401b038111838210176200039457604052565b51906001600160a01b03821682036200038f57565b81519091906001600160401b0381116200039457825460019283821691841c821562000544575b602092838210146200052e57601f8111620004e0575b5081601f84116001146200047957509282939183926000946200046d575b50501b916000199060031b1c1916179055565b0151925038806200045a565b919083601f1981168760005284600020946000905b88838310620004c55750505010620004ab575b505050811b019055565b015160001960f88460031b161c19169055388080620004a1565b8587015188559096019594850194879350908101906200048e565b8560005282600020601f850160051c81019184861062000523575b601f0160051c019085905b828110620005165750506200043c565b6000815501859062000506565b9091508190620004fb565b634e487b7160e01b600052602260045260246000fd5b607f1662000426565b62000557620003aa565b8181526020808201600181526040830191601483526040519085519060005b8281106200062857505081602081620005a0936002979695016004815203019020945185620003ff565b600184019051151560ff80198354169116179055519101556005549068010000000000000000821015620003945760018201806005558210156200061257600560005262000610917f036b6384b5eca791c62761152d0c79bb0604c104a5fb6f4eb0703f3154bb3db001620003ff565b565b634e487b7160e01b600052603260045260246000fd5b87810182015184820152810162000576565b62000644620003aa565b8181526020808201600181526040830191600a83526040519085519060005b8281106200068d57505081602081620005a0936002979695016004815203019020945185620003ff565b8781018201518482015281016200066356fe6040608081526004908136101561001557600080fd5b6000803560e01c806304c08438146109dd5780630e830e4914610986578063119e9d64146109615780632e90c1a91461093e5780632eafed9e14610916578063419759f5146108f757806358e56db4146108f75780637b1ef5f714610890578063bdc154c91461084c578063bf5fe73814610392578063cfb83d4c14610366578063d88f63761461017e578063e6f0af6e1461014d5763fa851e96146100ba57600080fd5b3461014a57602036600319011261014a5782359067ffffffffffffffff821161014a5750602061013b936100f46101079336908301610f27565b9082855194838680955193849201611066565b82019081520301902061011981610fc1565b91600260ff600184015416920154908051948594606086526060860190611089565b92151560208501528301520390f35b80fd5b50913461017a57602036600319011261017a578160209360ff923581526003855220541690519015158152f35b8280fd5b50913461017a57606036600319011261017a5767ffffffffffffffff918135838111610362576101b19036908401610f27565b926024359081151580920361035e576101cb323314611132565b82519460608601868110838211176103495784528086526102096020809281890195865281878a019760443589525193828580945193849201611066565b810188815203019020955194855192831161033657506102298654610f87565b601f81116102f3575b5080601f831160011461028757508190600295889261027c575b50508160011b916000199060031b1c19161784555b600184019051151560ff801983541691161790555191015580f35b01519050388061024c565b91929394601f1984168789528389209389905b8282106102db575050916001939185600298979694106102c2575b505050811b018455610261565b015160001960f88460031b161c191690553880806102b5565b8060018697829497870151815501960194019061029a565b868852818820601f840160051c81019183851061032c575b601f0160051c01905b8181106103215750610232565b888155600101610314565b909150819061030b565b634e487b7160e01b885260419052602487fd5b604186634e487b7160e01b6000525260246000fd5b8580fd5b8480fd5b50903461038e578160031936011261038e57905490516001600160a01b039091168152602090f35b5080fd5b50903461038e576003199060803683011261017a57833593602492833567ffffffffffffffff8082116108485736602383011215610848578184013595818711610837578660051b926020938751986103ed8683018b610ee9565b895282858a01918301019136831161064d57838101915b8383106107cb575050505060449283359760028910156106495760649586358581116107c757610100809282360301126107c7578951918201828110878211176107b5578a528089013582528481013584830152610463878201610f73565b8a830152610472888201610f73565b606083015260848101356001600160e01b0319811681036107b157608083015260a48101358681116107b15760e0916104b260e4928c3691840101610f27565b60a085015260c481013560c085015201359101526001600160a01b039a7f00000000000000000000000000000000000000000000000000000000000000008c16330361077a57808b526003835260ff898c20541661073b578a5260038252878a20805460ff1916600117905560028252878a20549889156106fc5715806106f2575b1561065157610542906110ae565b5151928351840193828181870196031261064d578281015191821161064d570183603f8201121561064957818101519161057b83610f0b565b946105888a519687610ee9565b83865289848401011161064d57916105ab91898695946105bc9897019101611066565b6105b482611175565b9490926111ca565b9989541695863b156106495787519863826fa8eb60e01b8a52818a015260038310156106365750610608899a60808a978c999789978b9789978801528601528401526084830190611089565b03925af190811561062d575061061d57505080f35b61062690610e87565b61014a5780f35b513d84823e3d90fd5b602190634e487b7160e01b600052526000fd5b8980fd5b8a80fd5b505096978880969795939492505416803b1561035e5760808692603260e49660018b519c8d9a8b9963826fa8eb60e01b8b528a0152880152860152840152602f60848401527f5269736b206173736573736d656e74206661696c6564202d206d616e75616c2060a48401526e1c995d9a595dc81c995c5d5a5c9959608a1b60c48401525af190811561062d57506106e6575080f35b6106ef90610e87565b80f35b5080511515610534565b5050601792507f4f7261636c653a20756e6b6e6f776e20726571756573740000000000000000009496519562461bcd60e51b8752860152840152820152fd5b5050601992507f4f7261636c653a20616c72656164792070726f636573736564000000000000009496519562461bcd60e51b8752860152840152820152fd5b505060159250744f7261636c653a206f6e6c7920706c6174666f726d60581b9496519562461bcd60e51b8752860152840152820152fd5b8c80fd5b634e487b7160e01b8d5260418a52858dfd5b8b80fd5b82358681116107b15782018760231982360301126107b1578a519088820182811089821117610825578c528681013588811161082157916108148a949289869536920101610f27565b8152815201920191610404565b8e80fd5b634e487b7160e01b8f5260418c52878ffd5b634e487b7160e01b88526041855287fd5b8680fd5b50903461038e578160031936011261038e57517f00000000000000000000000000000000000000000000000000000000000000006001600160a01b03168152602090f35b50913461017a57602036600319011261017a573560055481101561017a576108e09060056108f394527f036b6384b5eca791c62761152d0c79bb0604c104a5fb6f4eb0703f3154bb3db001610fc1565b9051918291602083526020830190611089565b0390f35b50903461038e578160031936011261038e576020906001549051908152f35b50913461017a57602036600319011261017a5760209282913581526002845220549051908152f35b50903461038e578160031936011261038e576020905167b24ac1afbcefc7088152f35b50823461038e57602036600319011261038e5761097f323314611132565b3560015580f35b50823461038e57602036600319011261038e57356001600160a01b038181169182900361017a578254908116331480156109d4575b6109c490611132565b6001600160a01b03191617815580f35b503332146109bb565b5091903461017a578060031936011261017a5781359167ffffffffffffffff906024803583811161084857610a159036908401610f27565b5085546001600160a01b039081163303610e4f57610a32866112d0565b92855194610b6e60ee876020977f417373657373207472616e73616374696f6e207269736b20666f72207478496489830152600160fd1b8b830152610a80815180928b604186019101611066565b81017f2e20436f6e73696465723a207472616e73616374696f6e2076616c75652c207260418201527f6563697069656e742072657075746174696f6e2c20746f6b656e207269736b206061820152680383937b334b63296160bd1b60818201527f6167656e74206265686176696f72207061747465726e732c206e6574776f726b608a8201527f20636f6e646974696f6e732c20616e64207072697661637920636f6d706c696160aa8201526403731b297160dd1b60ca8201527f52657475726e3a20736166652c207265766965772c206f7220626c6f636b2e0060cf8201520360ce810189520187610ee9565b865160a0810181811083821117610e3d578852606b81527f596f75206172652061204465466920736563757269747920616e616c79737420868201527f6576616c756174696e67206167656e74207472616e73616374696f6e207269738882015260607f6b2e2052657475726e206f6e6c79206f6e653a20736166652c2072657669657760608301526a161037b910313637b1b59760a91b6080830152885192608084019084821090821117610e2b578952600383528a9190825b818110610e1957505091610cca97918796959493610c456110f1565b610c4e846110ae565b52610c58836110ae565b508a51610c6481610eb1565b600681526572657669657760d01b89820152610c7f846110d1565b52610c89836110d1565b50610c92611111565b610c9b846110e1565b52610ca5836110e1565b50610cdd8b519a8b95631fcf941360e31b8b88015260808a88015260a4870190611089565b6023199283878303016044880152611089565b9082606486015284820301608485015282519081815288810189808460051b840101950193915b838310610de557505050505067b24ac1afbcefc7089291610d2d9103601f198101895288610ee9565b60015490610d6d8951988996879586946345de5df160e11b865285015230908401526317ebfce760e31b6044840152608060648401526084830190611089565b03927f0000000000000000000000000000000000000000000000000000000000000000165af18015610ddb578590610dad575b6002925085525282205580f35b508082813d8311610dd4575b610dc38183610ee9565b810103126103625760029151610da0565b503d610db9565b83513d87823e3d90fd5b929550929596979880610e0560019396601f198682030187528951611089565b9701930193018998979695938b9592610d04565b84810189018290528c93508801610c29565b634e487b7160e01b8c5260418552868cfd5b634e487b7160e01b8b5260418452858bfd5b845162461bcd60e51b8152602081850152601381840152724f7261636c653a206f6e6c7920656e67696e6560681b6044820152606490fd5b67ffffffffffffffff8111610e9b57604052565b634e487b7160e01b600052604160045260246000fd5b6040810190811067ffffffffffffffff821117610e9b57604052565b6060810190811067ffffffffffffffff821117610e9b57604052565b90601f8019910116810190811067ffffffffffffffff821117610e9b57604052565b67ffffffffffffffff8111610e9b57601f01601f191660200190565b81601f82011215610f6e57803590610f3e82610f0b565b92610f4c6040519485610ee9565b82845260208383010111610f6e57816000926020809301838601378301015290565b600080fd5b35906001600160a01b0382168203610f6e57565b90600182811c92168015610fb7575b6020831014610fa157565b634e487b7160e01b600052602260045260246000fd5b91607f1691610f96565b90604051918260008254610fd481610f87565b908184526020946001916001811690816000146110445750600114611005575b50505061100392500383610ee9565b565b600090815285812095935091905b81831061102c5750506110039350820101388080610ff4565b85548884018501529485019487945091830191611013565b9250505061100394925060ff191682840152151560051b820101388080610ff4565b60005b8381106110795750506000910152565b8181015183820152602001611069565b906020916110a281518092818552858086019101611066565b601f01601f1916010190565b8051156110bb5760200190565b634e487b7160e01b600052603260045260246000fd5b8051600110156110bb5760400190565b8051600210156110bb5760600190565b604051906110fe82610eb1565b60048252637361666560e01b6020830152565b6040519061111e82610eb1565b6005825264626c6f636b60d81b6020830152565b1561113957565b60405162461bcd60e51b815260206004820152601460248201527313dc9858db194e881d5b985d5d1a1bdc9a5e995960621b6044820152606490fd5b805190602081019182206111876110f1565b60208151910120146000146111a0575050600090600f90565b5190206111ab611111565b60208151910120146000146111c257600290605590565b600190603290565b80516020918281019182206111dd6110f1565b8051908501200361122d5750507f5472616e73616374696f6e2070617373656420616c6c207269736b20636865636040519161121883610ecd565b60228352820152616b7360f01b604082015290565b519020611238611111565b8051908301200361128a577f5472616e73616374696f6e20626c6f636b6564206279207269736b20617373656040519161127183610ecd565b60268352820152651cdcdb595b9d60d21b604082015290565b7f5472616e73616374696f6e20666c616767656420666f72206d616e75616c2072604051916112b883610ecd565b6025835282015264657669657760d81b604082015290565b801561139157600081805b61137957506112e981610f0b565b906112f76040519283610ee9565b808252601f1961130682610f0b565b013660208401375b8092801561137257600019820191821161135c578193600a92603090848406820180921161135c57855111156110bb5760f81b6001600160f81b03191660001a908401601f0153049161130e565b634e487b7160e01b600052601160045260246000fd5b5050905090565b90600019811461135c576001600a91019104806112db565b5060405161139e81610eb1565b60018152600360fc1b60208201529056fea2646970667358221220e649af232921b3fddc68b8a5cfb55e140f620ce5aa61d3dd31e7a2c431c68cf664736f6c63430008180033","opcodes":"PUSH1 0xA0 CALLVALUE PUSH3 0x38F JUMPI PUSH1 0x1F PUSH3 0x1A85 CODESIZE DUP2 SWAP1 SUB SWAP2 DUP3 ADD PUSH1 0x1F NOT AND DUP4 ADD SWAP2 SWAP1 PUSH1 0x1 PUSH1 0x1 PUSH1 0x40 SHL SUB DUP4 GT DUP5 DUP5 LT OR PUSH3 0x394 JUMPI DUP2 PUSH1 0x60 SWAP3 DUP6 SWAP3 PUSH1 0x40 SWAP6 DUP7 MSTORE DUP4 CODECOPY DUP2 ADD SUB SLT PUSH3 0x38F JUMPI PUSH3 0x50 DUP3 PUSH3 0x3EA JUMP JUMPDEST PUSH1 0x20 SWAP1 DUP3 PUSH3 0x61 DUP4 DUP7 ADD PUSH3 0x3EA JUMP JUMPDEST SWAP5 ADD MLOAD PUSH1 0x80 SWAP2 SWAP1 SWAP2 MSTORE PUSH1 0x0 DUP1 SLOAD PUSH1 0x1 PUSH1 0x1 PUSH1 0xA0 SHL SUB NOT AND PUSH1 0x1 PUSH1 0x1 PUSH1 0xA0 SHL SUB SWAP1 SWAP6 AND SWAP5 SWAP1 SWAP5 OR DUP5 SSTORE PUSH1 0x1 SWAP1 DUP2 SSTORE PUSH3 0x98 PUSH3 0x3CA JUMP JUMPDEST PUSH1 0x11 DUP2 MSTORE PUSH17 0x7472616E73616374696F6E5F76616C7565 PUSH1 0x78 SHL DUP4 DUP3 ADD MSTORE PUSH3 0xBF PUSH3 0x3AA JUMP JUMPDEST SWAP5 DUP2 DUP7 MSTORE DUP4 DUP7 ADD SWAP3 DUP1 DUP5 MSTORE DUP6 DUP8 ADD SWAP7 PUSH1 0x19 DUP9 MSTORE DUP7 MLOAD SWAP8 DUP5 MLOAD DUP8 DUP6 JUMPDEST DUP3 DUP2 LT PUSH3 0x37C JUMPI POP POP SWAP1 PUSH3 0x104 PUSH1 0x2 SWAP3 DUP12 ADD SWAP11 DUP10 DUP2 PUSH1 0x4 SWAP14 DUP15 DUP2 MSTORE SUB ADD SWAP1 KECCAK256 SWAP4 MLOAD DUP5 PUSH3 0x3FF JUMP JUMPDEST DUP4 DUP4 ADD SWAP7 MLOAD ISZERO ISZERO SWAP7 PUSH1 0xFF NOT SWAP8 PUSH1 0xFF DUP10 DUP4 SLOAD AND SWAP2 AND OR SWAP1 SSTORE MLOAD SWAP2 ADD SSTORE PUSH1 0x5 SWAP1 DUP2 SLOAD SWAP4 PUSH9 0x10000000000000000 SWAP5 DUP6 DUP2 LT ISZERO PUSH3 0x369 JUMPI DUP3 DUP2 ADD DUP1 DUP6 SSTORE DUP2 LT ISZERO PUSH3 0x356 JUMPI SWAP1 PUSH3 0x15A SWAP2 DUP5 DUP7 MSTORE DUP9 DUP7 KECCAK256 ADD PUSH3 0x3FF JUMP JUMPDEST PUSH3 0x197 PUSH3 0x168 PUSH3 0x3CA JUMP JUMPDEST PUSH1 0x14 DUP2 MSTORE PUSH32 0x726563697069656E745F72657075746174696F6E000000000000000000000000 DUP9 DUP3 ADD MSTORE PUSH3 0x54D JUMP JUMPDEST PUSH3 0x1C9 PUSH3 0x1A5 PUSH3 0x3CA JUMP JUMPDEST PUSH1 0x12 DUP2 MSTORE PUSH18 0x746F6B656E5F7269736B5F70726F66696C65 PUSH1 0x70 SHL DUP9 DUP3 ADD MSTORE PUSH3 0x54D JUMP JUMPDEST PUSH3 0x1D3 PUSH3 0x3CA JUMP JUMPDEST SWAP5 PUSH1 0x16 DUP7 MSTORE PUSH32 0x6167656E745F6265686176696F725F7061747465726E00000000000000000000 DUP8 DUP8 ADD MSTORE PUSH3 0x207 PUSH3 0x3AA JUMP JUMPDEST SWAP1 DUP7 DUP3 MSTORE DUP8 DUP3 ADD DUP4 DUP2 MSTORE DUP10 DUP4 ADD SWAP2 PUSH1 0xF DUP4 MSTORE DUP11 MLOAD DUP11 DUP14 DUP12 MLOAD DUP11 JUMPDEST DUP14 DUP3 DUP3 LT PUSH3 0x33C JUMPI POP POP DUP4 ADD SWAP1 DUP2 MSTORE DUP3 SWAP1 SUB ADD SWAP1 KECCAK256 SWAP4 MLOAD PUSH1 0x2 SWAP4 SWAP3 SWAP2 SWAP1 PUSH3 0x24B SWAP1 DUP7 PUSH3 0x3FF JUMP JUMPDEST PUSH1 0xFF DUP7 DUP7 ADD SWAP3 MLOAD ISZERO ISZERO SWAP2 DUP4 SLOAD AND SWAP2 AND OR SWAP1 SSTORE MLOAD SWAP2 ADD SSTORE DUP2 SLOAD SWAP4 DUP5 LT ISZERO PUSH3 0x329 JUMPI DUP4 ADD DUP1 DUP3 SSTORE DUP4 LT ISZERO PUSH3 0x316 JUMPI SWAP2 DUP5 DUP3 PUSH3 0x291 SWAP5 PUSH3 0x2F1 SWAP8 SWAP7 SWAP5 MSTORE KECCAK256 ADD PUSH3 0x3FF JUMP JUMPDEST PUSH3 0x2C3 PUSH3 0x29F PUSH3 0x3CA JUMP JUMPDEST PUSH1 0x12 DUP2 MSTORE PUSH18 0x6E6574776F726B5F636F6E646974696F6E73 PUSH1 0x70 SHL DUP4 DUP3 ADD MSTORE PUSH3 0x63A JUMP JUMPDEST PUSH18 0x707269766163795F636F6D706C69616E6365 PUSH1 0x70 SHL PUSH3 0x2E3 PUSH3 0x3CA JUMP JUMPDEST SWAP2 PUSH1 0x12 DUP4 MSTORE DUP3 ADD MSTORE PUSH3 0x63A JUMP JUMPDEST MLOAD PUSH2 0x13E5 SWAP1 DUP2 PUSH3 0x6A0 DUP3 CODECOPY PUSH1 0x80 MLOAD DUP2 DUP2 DUP2 PUSH2 0x4D1 ADD MSTORE DUP2 DUP2 PUSH2 0x861 ADD MSTORE PUSH2 0xD71 ADD MSTORE RETURN JUMPDEST PUSH4 0x4E487B71 PUSH1 0xE0 SHL DUP3 MSTORE PUSH1 0x32 DUP8 MSTORE PUSH1 0x24 DUP3 REVERT JUMPDEST PUSH4 0x4E487B71 PUSH1 0xE0 SHL DUP4 MSTORE PUSH1 0x41 DUP9 MSTORE PUSH1 0x24 DUP4 REVERT JUMPDEST DUP5 SWAP4 POP SWAP1 DUP1 SWAP3 SWAP5 SWAP2 ADD ADD MLOAD DUP2 DUP6 ADD MSTORE ADD DUP13 SWAP2 DUP16 SWAP2 PUSH3 0x221 JUMP JUMPDEST PUSH4 0x4E487B71 PUSH1 0xE0 SHL DUP6 MSTORE PUSH1 0x32 DUP11 MSTORE PUSH1 0x24 DUP6 REVERT JUMPDEST PUSH4 0x4E487B71 PUSH1 0xE0 SHL DUP6 MSTORE PUSH1 0x41 DUP11 MSTORE PUSH1 0x24 DUP6 REVERT JUMPDEST DUP2 DUP2 DUP10 ADD ADD MLOAD DUP2 DUP14 ADD MSTORE ADD DUP9 SWAP1 PUSH3 0xDA JUMP JUMPDEST PUSH1 0x0 DUP1 REVERT JUMPDEST PUSH4 0x4E487B71 PUSH1 0xE0 SHL PUSH1 0x0 MSTORE PUSH1 0x41 PUSH1 0x4 MSTORE PUSH1 0x24 PUSH1 0x0 REVERT JUMPDEST PUSH1 0x40 MLOAD SWAP1 PUSH1 0x60 DUP3 ADD PUSH1 0x1 PUSH1 0x1 PUSH1 0x40 SHL SUB DUP2 GT DUP4 DUP3 LT OR PUSH3 0x394 JUMPI PUSH1 0x40 MSTORE JUMP JUMPDEST PUSH1 0x40 DUP1 MLOAD SWAP2 SWAP1 DUP3 ADD PUSH1 0x1 PUSH1 0x1 PUSH1 0x40 SHL SUB DUP2 GT DUP4 DUP3 LT OR PUSH3 0x394 JUMPI PUSH1 0x40 MSTORE JUMP JUMPDEST MLOAD SWAP1 PUSH1 0x1 PUSH1 0x1 PUSH1 0xA0 SHL SUB DUP3 AND DUP3 SUB PUSH3 0x38F JUMPI JUMP JUMPDEST DUP2 MLOAD SWAP1 SWAP2 SWAP1 PUSH1 0x1 PUSH1 0x1 PUSH1 0x40 SHL SUB DUP2 GT PUSH3 0x394 JUMPI DUP3 SLOAD PUSH1 0x1 SWAP3 DUP4 DUP3 AND SWAP2 DUP5 SHR DUP3 ISZERO PUSH3 0x544 JUMPI JUMPDEST PUSH1 0x20 SWAP3 DUP4 DUP3 LT EQ PUSH3 0x52E JUMPI PUSH1 0x1F DUP2 GT PUSH3 0x4E0 JUMPI JUMPDEST POP DUP2 PUSH1 0x1F DUP5 GT PUSH1 0x1 EQ PUSH3 0x479 JUMPI POP SWAP3 DUP3 SWAP4 SWAP2 DUP4 SWAP3 PUSH1 0x0 SWAP5 PUSH3 0x46D JUMPI JUMPDEST POP POP SHL SWAP2 PUSH1 0x0 NOT SWAP1 PUSH1 0x3 SHL SHR NOT AND OR SWAP1 SSTORE JUMP JUMPDEST ADD MLOAD SWAP3 POP CODESIZE DUP1 PUSH3 0x45A JUMP JUMPDEST SWAP2 SWAP1 DUP4 PUSH1 0x1F NOT DUP2 AND DUP8 PUSH1 0x0 MSTORE DUP5 PUSH1 0x0 KECCAK256 SWAP5 PUSH1 0x0 SWAP1 JUMPDEST DUP9 DUP4 DUP4 LT PUSH3 0x4C5 JUMPI POP POP POP LT PUSH3 0x4AB JUMPI JUMPDEST POP POP POP DUP2 SHL ADD SWAP1 SSTORE JUMP JUMPDEST ADD MLOAD PUSH1 0x0 NOT PUSH1 0xF8 DUP5 PUSH1 0x3 SHL AND SHR NOT AND SWAP1 SSTORE CODESIZE DUP1 DUP1 PUSH3 0x4A1 JUMP JUMPDEST DUP6 DUP8 ADD MLOAD DUP9 SSTORE SWAP1 SWAP7 ADD SWAP6 SWAP5 DUP6 ADD SWAP5 DUP8 SWAP4 POP SWAP1 DUP2 ADD SWAP1 PUSH3 0x48E JUMP JUMPDEST DUP6 PUSH1 0x0 MSTORE DUP3 PUSH1 0x0 KECCAK256 PUSH1 0x1F DUP6 ADD PUSH1 0x5 SHR DUP2 ADD SWAP2 DUP5 DUP7 LT PUSH3 0x523 JUMPI JUMPDEST PUSH1 0x1F ADD PUSH1 0x5 SHR ADD SWAP1 DUP6 SWAP1 JUMPDEST DUP3 DUP2 LT PUSH3 0x516 JUMPI POP POP PUSH3 0x43C JUMP JUMPDEST PUSH1 0x0 DUP2 SSTORE ADD DUP6 SWAP1 PUSH3 0x506 JUMP JUMPDEST SWAP1 SWAP2 POP DUP2 SWAP1 PUSH3 0x4FB JUMP JUMPDEST PUSH4 0x4E487B71 PUSH1 0xE0 SHL PUSH1 0x0 MSTORE PUSH1 0x22 PUSH1 0x4 MSTORE PUSH1 0x24 PUSH1 0x0 REVERT JUMPDEST PUSH1 0x7F AND PUSH3 0x426 JUMP JUMPDEST PUSH3 0x557 PUSH3 0x3AA JUMP JUMPDEST DUP2 DUP2 MSTORE PUSH1 0x20 DUP1 DUP3 ADD PUSH1 0x1 DUP2 MSTORE PUSH1 0x40 DUP4 ADD SWAP2 PUSH1 0x14 DUP4 MSTORE PUSH1 0x40 MLOAD SWAP1 DUP6 MLOAD SWAP1 PUSH1 0x0 JUMPDEST DUP3 DUP2 LT PUSH3 0x628 JUMPI POP POP DUP2 PUSH1 0x20 DUP2 PUSH3 0x5A0 SWAP4 PUSH1 0x2 SWAP8 SWAP7 SWAP6 ADD PUSH1 0x4 DUP2 MSTORE SUB ADD SWAP1 KECCAK256 SWAP5 MLOAD DUP6 PUSH3 0x3FF JUMP JUMPDEST PUSH1 0x1 DUP5 ADD SWAP1 MLOAD ISZERO ISZERO PUSH1 0xFF DUP1 NOT DUP4 SLOAD AND SWAP2 AND OR SWAP1 SSTORE MLOAD SWAP2 ADD SSTORE PUSH1 0x5 SLOAD SWAP1 PUSH9 0x10000000000000000 DUP3 LT ISZERO PUSH3 0x394 JUMPI PUSH1 0x1 DUP3 ADD DUP1 PUSH1 0x5 SSTORE DUP3 LT ISZERO PUSH3 0x612 JUMPI PUSH1 0x5 PUSH1 0x0 MSTORE PUSH3 0x610 SWAP2 PUSH32 0x36B6384B5ECA791C62761152D0C79BB0604C104A5FB6F4EB0703F3154BB3DB0 ADD PUSH3 0x3FF JUMP JUMPDEST JUMP JUMPDEST PUSH4 0x4E487B71 PUSH1 0xE0 SHL PUSH1 0x0 MSTORE PUSH1 0x32 PUSH1 0x4 MSTORE PUSH1 0x24 PUSH1 0x0 REVERT JUMPDEST DUP8 DUP2 ADD DUP3 ADD MLOAD DUP5 DUP3 ADD MSTORE DUP2 ADD PUSH3 0x576 JUMP JUMPDEST PUSH3 0x644 PUSH3 0x3AA JUMP JUMPDEST DUP2 DUP2 MSTORE PUSH1 0x20 DUP1 DUP3 ADD PUSH1 0x1 DUP2 MSTORE PUSH1 0x40 DUP4 ADD SWAP2 PUSH1 0xA DUP4 MSTORE PUSH1 0x40 MLOAD SWAP1 DUP6 MLOAD SWAP1 PUSH1 0x0 JUMPDEST DUP3 DUP2 LT PUSH3 0x68D JUMPI POP POP DUP2 PUSH1 0x20 DUP2 PUSH3 0x5A0 SWAP4 PUSH1 0x2 SWAP8 SWAP7 SWAP6 ADD PUSH1 0x4 DUP2 MSTORE SUB ADD SWAP1 KECCAK256 SWAP5 MLOAD DUP6 PUSH3 0x3FF JUMP JUMPDEST DUP8 DUP2 ADD DUP3 ADD MLOAD DUP5 DUP3 ADD MSTORE DUP2 ADD PUSH3 0x663 JUMP INVALID PUSH1 0x40 PUSH1 0x80 DUP2 MSTORE PUSH1 0x4 SWAP1 DUP2 CALLDATASIZE LT ISZERO PUSH2 0x15 JUMPI PUSH1 0x0 DUP1 REVERT JUMPDEST PUSH1 0x0 DUP1 CALLDATALOAD PUSH1 0xE0 SHR DUP1 PUSH4 0x4C08438 EQ PUSH2 0x9DD JUMPI DUP1 PUSH4 0xE830E49 EQ PUSH2 0x986 JUMPI DUP1 PUSH4 0x119E9D64 EQ PUSH2 0x961 JUMPI DUP1 PUSH4 0x2E90C1A9 EQ PUSH2 0x93E JUMPI DUP1 PUSH4 0x2EAFED9E EQ PUSH2 0x916 JUMPI DUP1 PUSH4 0x419759F5 EQ PUSH2 0x8F7 JUMPI DUP1 PUSH4 0x58E56DB4 EQ PUSH2 0x8F7 JUMPI DUP1 PUSH4 0x7B1EF5F7 EQ PUSH2 0x890 JUMPI DUP1 PUSH4 0xBDC154C9 EQ PUSH2 0x84C JUMPI DUP1 PUSH4 0xBF5FE738 EQ PUSH2 0x392 JUMPI DUP1 PUSH4 0xCFB83D4C EQ PUSH2 0x366 JUMPI DUP1 PUSH4 0xD88F6376 EQ PUSH2 0x17E JUMPI DUP1 PUSH4 0xE6F0AF6E EQ PUSH2 0x14D JUMPI PUSH4 0xFA851E96 EQ PUSH2 0xBA JUMPI PUSH1 0x0 DUP1 REVERT JUMPDEST CALLVALUE PUSH2 0x14A JUMPI PUSH1 0x20 CALLDATASIZE PUSH1 0x3 NOT ADD SLT PUSH2 0x14A JUMPI DUP3 CALLDATALOAD SWAP1 PUSH8 0xFFFFFFFFFFFFFFFF DUP3 GT PUSH2 0x14A JUMPI POP PUSH1 0x20 PUSH2 0x13B SWAP4 PUSH2 0xF4 PUSH2 0x107 SWAP4 CALLDATASIZE SWAP1 DUP4 ADD PUSH2 0xF27 JUMP JUMPDEST SWAP1 DUP3 DUP6 MLOAD SWAP5 DUP4 DUP7 DUP1 SWAP6 MLOAD SWAP4 DUP5 SWAP3 ADD PUSH2 0x1066 JUMP JUMPDEST DUP3 ADD SWAP1 DUP2 MSTORE SUB ADD SWAP1 KECCAK256 PUSH2 0x119 DUP2 PUSH2 0xFC1 JUMP JUMPDEST SWAP2 PUSH1 0x2 PUSH1 0xFF PUSH1 0x1 DUP5 ADD SLOAD AND SWAP3 ADD SLOAD SWAP1 DUP1 MLOAD SWAP5 DUP6 SWAP5 PUSH1 0x60 DUP7 MSTORE PUSH1 0x60 DUP7 ADD SWAP1 PUSH2 0x1089 JUMP JUMPDEST SWAP3 ISZERO ISZERO PUSH1 0x20 DUP6 ADD MSTORE DUP4 ADD MSTORE SUB SWAP1 RETURN JUMPDEST DUP1 REVERT JUMPDEST POP SWAP2 CALLVALUE PUSH2 0x17A JUMPI PUSH1 0x20 CALLDATASIZE PUSH1 0x3 NOT ADD SLT PUSH2 0x17A JUMPI DUP2 PUSH1 0x20 SWAP4 PUSH1 0xFF SWAP3 CALLDATALOAD DUP2 MSTORE PUSH1 0x3 DUP6 MSTORE KECCAK256 SLOAD AND SWAP1 MLOAD SWAP1 ISZERO ISZERO DUP2 MSTORE RETURN JUMPDEST DUP3 DUP1 REVERT JUMPDEST POP SWAP2 CALLVALUE PUSH2 0x17A JUMPI PUSH1 0x60 CALLDATASIZE PUSH1 0x3 NOT ADD SLT PUSH2 0x17A JUMPI PUSH8 0xFFFFFFFFFFFFFFFF SWAP2 DUP2 CALLDATALOAD DUP4 DUP2 GT PUSH2 0x362 JUMPI PUSH2 0x1B1 SWAP1 CALLDATASIZE SWAP1 DUP5 ADD PUSH2 0xF27 JUMP JUMPDEST SWAP3 PUSH1 0x24 CALLDATALOAD SWAP1 DUP2 ISZERO ISZERO DUP1 SWAP3 SUB PUSH2 0x35E JUMPI PUSH2 0x1CB ORIGIN CALLER EQ PUSH2 0x1132 JUMP JUMPDEST DUP3 MLOAD SWAP5 PUSH1 0x60 DUP7 ADD DUP7 DUP2 LT DUP4 DUP3 GT OR PUSH2 0x349 JUMPI DUP5 MSTORE DUP1 DUP7 MSTORE PUSH2 0x209 PUSH1 0x20 DUP1 SWAP3 DUP2 DUP10 ADD SWAP6 DUP7 MSTORE DUP2 DUP8 DUP11 ADD SWAP8 PUSH1 0x44 CALLDATALOAD DUP10 MSTORE MLOAD SWAP4 DUP3 DUP6 DUP1 SWAP5 MLOAD SWAP4 DUP5 SWAP3 ADD PUSH2 0x1066 JUMP JUMPDEST DUP2 ADD DUP9 DUP2 MSTORE SUB ADD SWAP1 KECCAK256 SWAP6 MLOAD SWAP5 DUP6 MLOAD SWAP3 DUP4 GT PUSH2 0x336 JUMPI POP PUSH2 0x229 DUP7 SLOAD PUSH2 0xF87 JUMP JUMPDEST PUSH1 0x1F DUP2 GT PUSH2 0x2F3 JUMPI JUMPDEST POP DUP1 PUSH1 0x1F DUP4 GT PUSH1 0x1 EQ PUSH2 0x287 JUMPI POP DUP2 SWAP1 PUSH1 0x2 SWAP6 DUP9 SWAP3 PUSH2 0x27C JUMPI JUMPDEST POP POP DUP2 PUSH1 0x1 SHL SWAP2 PUSH1 0x0 NOT SWAP1 PUSH1 0x3 SHL SHR NOT AND OR DUP5 SSTORE JUMPDEST PUSH1 0x1 DUP5 ADD SWAP1 MLOAD ISZERO ISZERO PUSH1 0xFF DUP1 NOT DUP4 SLOAD AND SWAP2 AND OR SWAP1 SSTORE MLOAD SWAP2 ADD SSTORE DUP1 RETURN JUMPDEST ADD MLOAD SWAP1 POP CODESIZE DUP1 PUSH2 0x24C JUMP JUMPDEST SWAP2 SWAP3 SWAP4 SWAP5 PUSH1 0x1F NOT DUP5 AND DUP8 DUP10 MSTORE DUP4 DUP10 KECCAK256 SWAP4 DUP10 SWAP1 JUMPDEST DUP3 DUP3 LT PUSH2 0x2DB JUMPI POP POP SWAP2 PUSH1 0x1 SWAP4 SWAP2 DUP6 PUSH1 0x2 SWAP9 SWAP8 SWAP7 SWAP5 LT PUSH2 0x2C2 JUMPI JUMPDEST POP POP POP DUP2 SHL ADD DUP5 SSTORE PUSH2 0x261 JUMP JUMPDEST ADD MLOAD PUSH1 0x0 NOT PUSH1 0xF8 DUP5 PUSH1 0x3 SHL AND SHR NOT AND SWAP1 SSTORE CODESIZE DUP1 DUP1 PUSH2 0x2B5 JUMP JUMPDEST DUP1 PUSH1 0x1 DUP7 SWAP8 DUP3 SWAP5 SWAP8 DUP8 ADD MLOAD DUP2 SSTORE ADD SWAP7 ADD SWAP5 ADD SWAP1 PUSH2 0x29A JUMP JUMPDEST DUP7 DUP9 MSTORE DUP2 DUP9 KECCAK256 PUSH1 0x1F DUP5 ADD PUSH1 0x5 SHR DUP2 ADD SWAP2 DUP4 DUP6 LT PUSH2 0x32C JUMPI JUMPDEST PUSH1 0x1F ADD PUSH1 0x5 SHR ADD SWAP1 JUMPDEST DUP2 DUP2 LT PUSH2 0x321 JUMPI POP PUSH2 0x232 JUMP JUMPDEST DUP9 DUP2 SSTORE PUSH1 0x1 ADD PUSH2 0x314 JUMP JUMPDEST SWAP1 SWAP2 POP DUP2 SWAP1 PUSH2 0x30B JUMP JUMPDEST PUSH4 0x4E487B71 PUSH1 0xE0 SHL DUP9 MSTORE PUSH1 0x41 SWAP1 MSTORE PUSH1 0x24 DUP8 REVERT JUMPDEST PUSH1 0x41 DUP7 PUSH4 0x4E487B71 PUSH1 0xE0 SHL PUSH1 0x0 MSTORE MSTORE PUSH1 0x24 PUSH1 0x0 REVERT JUMPDEST DUP6 DUP1 REVERT JUMPDEST DUP5 DUP1 REVERT JUMPDEST POP SWAP1 CALLVALUE PUSH2 0x38E JUMPI DUP2 PUSH1 0x3 NOT CALLDATASIZE ADD SLT PUSH2 0x38E JUMPI SWAP1 SLOAD SWAP1 MLOAD PUSH1 0x1 PUSH1 0x1 PUSH1 0xA0 SHL SUB SWAP1 SWAP2 AND DUP2 MSTORE PUSH1 0x20 SWAP1 RETURN JUMPDEST POP DUP1 REVERT JUMPDEST POP SWAP1 CALLVALUE PUSH2 0x38E JUMPI PUSH1 0x3 NOT SWAP1 PUSH1 0x80 CALLDATASIZE DUP4 ADD SLT PUSH2 0x17A JUMPI DUP4 CALLDATALOAD SWAP4 PUSH1 0x24 SWAP3 DUP4 CALLDATALOAD PUSH8 0xFFFFFFFFFFFFFFFF DUP1 DUP3 GT PUSH2 0x848 JUMPI CALLDATASIZE PUSH1 0x23 DUP4 ADD SLT ISZERO PUSH2 0x848 JUMPI DUP2 DUP5 ADD CALLDATALOAD SWAP6 DUP2 DUP8 GT PUSH2 0x837 JUMPI DUP7 PUSH1 0x5 SHL SWAP3 PUSH1 0x20 SWAP4 DUP8 MLOAD SWAP9 PUSH2 0x3ED DUP7 DUP4 ADD DUP12 PUSH2 0xEE9 JUMP JUMPDEST DUP10 MSTORE DUP3 DUP6 DUP11 ADD SWAP2 DUP4 ADD ADD SWAP2 CALLDATASIZE DUP4 GT PUSH2 0x64D JUMPI DUP4 DUP2 ADD SWAP2 JUMPDEST DUP4 DUP4 LT PUSH2 0x7CB JUMPI POP POP POP POP PUSH1 0x44 SWAP3 DUP4 CALLDATALOAD SWAP8 PUSH1 0x2 DUP10 LT ISZERO PUSH2 0x649 JUMPI PUSH1 0x64 SWAP6 DUP7 CALLDATALOAD DUP6 DUP2 GT PUSH2 0x7C7 JUMPI PUSH2 0x100 DUP1 SWAP3 DUP3 CALLDATASIZE SUB ADD SLT PUSH2 0x7C7 JUMPI DUP10 MLOAD SWAP2 DUP3 ADD DUP3 DUP2 LT DUP8 DUP3 GT OR PUSH2 0x7B5 JUMPI DUP11 MSTORE DUP1 DUP10 ADD CALLDATALOAD DUP3 MSTORE DUP5 DUP2 ADD CALLDATALOAD DUP5 DUP4 ADD MSTORE PUSH2 0x463 DUP8 DUP3 ADD PUSH2 0xF73 JUMP JUMPDEST DUP11 DUP4 ADD MSTORE PUSH2 0x472 DUP9 DUP3 ADD PUSH2 0xF73 JUMP JUMPDEST PUSH1 0x60 DUP4 ADD MSTORE PUSH1 0x84 DUP2 ADD CALLDATALOAD PUSH1 0x1 PUSH1 0x1 PUSH1 0xE0 SHL SUB NOT DUP2 AND DUP2 SUB PUSH2 0x7B1 JUMPI PUSH1 0x80 DUP4 ADD MSTORE PUSH1 0xA4 DUP2 ADD CALLDATALOAD DUP7 DUP2 GT PUSH2 0x7B1 JUMPI PUSH1 0xE0 SWAP2 PUSH2 0x4B2 PUSH1 0xE4 SWAP3 DUP13 CALLDATASIZE SWAP2 DUP5 ADD ADD PUSH2 0xF27 JUMP JUMPDEST PUSH1 0xA0 DUP6 ADD MSTORE PUSH1 0xC4 DUP2 ADD CALLDATALOAD PUSH1 0xC0 DUP6 ADD MSTORE ADD CALLDATALOAD SWAP2 ADD MSTORE PUSH1 0x1 PUSH1 0x1 PUSH1 0xA0 SHL SUB SWAP11 PUSH32 0x0 DUP13 AND CALLER SUB PUSH2 0x77A JUMPI DUP1 DUP12 MSTORE PUSH1 0x3 DUP4 MSTORE PUSH1 0xFF DUP10 DUP13 KECCAK256 SLOAD AND PUSH2 0x73B JUMPI DUP11 MSTORE PUSH1 0x3 DUP3 MSTORE DUP8 DUP11 KECCAK256 DUP1 SLOAD PUSH1 0xFF NOT AND PUSH1 0x1 OR SWAP1 SSTORE PUSH1 0x2 DUP3 MSTORE DUP8 DUP11 KECCAK256 SLOAD SWAP9 DUP10 ISZERO PUSH2 0x6FC JUMPI ISZERO DUP1 PUSH2 0x6F2 JUMPI JUMPDEST ISZERO PUSH2 0x651 JUMPI PUSH2 0x542 SWAP1 PUSH2 0x10AE JUMP JUMPDEST MLOAD MLOAD SWAP3 DUP4 MLOAD DUP5 ADD SWAP4 DUP3 DUP2 DUP2 DUP8 ADD SWAP7 SUB SLT PUSH2 0x64D JUMPI DUP3 DUP2 ADD MLOAD SWAP2 DUP3 GT PUSH2 0x64D JUMPI ADD DUP4 PUSH1 0x3F DUP3 ADD SLT ISZERO PUSH2 0x649 JUMPI DUP2 DUP2 ADD MLOAD SWAP2 PUSH2 0x57B DUP4 PUSH2 0xF0B JUMP JUMPDEST SWAP5 PUSH2 0x588 DUP11 MLOAD SWAP7 DUP8 PUSH2 0xEE9 JUMP JUMPDEST DUP4 DUP7 MSTORE DUP10 DUP5 DUP5 ADD ADD GT PUSH2 0x64D JUMPI SWAP2 PUSH2 0x5AB SWAP2 DUP10 DUP7 SWAP6 SWAP5 PUSH2 0x5BC SWAP9 SWAP8 ADD SWAP2 ADD PUSH2 0x1066 JUMP JUMPDEST PUSH2 0x5B4 DUP3 PUSH2 0x1175 JUMP JUMPDEST SWAP5 SWAP1 SWAP3 PUSH2 0x11CA JUMP JUMPDEST SWAP10 DUP10 SLOAD AND SWAP6 DUP7 EXTCODESIZE ISZERO PUSH2 0x649 JUMPI DUP8 MLOAD SWAP9 PUSH4 0x826FA8EB PUSH1 0xE0 SHL DUP11 MSTORE DUP2 DUP11 ADD MSTORE PUSH1 0x3 DUP4 LT ISZERO PUSH2 0x636 JUMPI POP PUSH2 0x608 DUP10 SWAP11 PUSH1 0x80 DUP11 SWAP8 DUP13 SWAP10 SWAP8 DUP10 SWAP8 DUP12 SWAP8 DUP10 SWAP8 DUP9 ADD MSTORE DUP7 ADD MSTORE DUP5 ADD MSTORE PUSH1 0x84 DUP4 ADD SWAP1 PUSH2 0x1089 JUMP JUMPDEST SUB SWAP3 GAS CALL SWAP1 DUP2 ISZERO PUSH2 0x62D JUMPI POP PUSH2 0x61D JUMPI POP POP DUP1 RETURN JUMPDEST PUSH2 0x626 SWAP1 PUSH2 0xE87 JUMP JUMPDEST PUSH2 0x14A JUMPI DUP1 RETURN JUMPDEST MLOAD RETURNDATASIZE DUP5 DUP3 RETURNDATACOPY RETURNDATASIZE SWAP1 REVERT JUMPDEST PUSH1 0x21 SWAP1 PUSH4 0x4E487B71 PUSH1 0xE0 SHL PUSH1 0x0 MSTORE MSTORE PUSH1 0x0 REVERT JUMPDEST DUP10 DUP1 REVERT JUMPDEST DUP11 DUP1 REVERT JUMPDEST POP POP SWAP7 SWAP8 DUP9 DUP1 SWAP7 SWAP8 SWAP6 SWAP4 SWAP5 SWAP3 POP SLOAD AND DUP1 EXTCODESIZE ISZERO PUSH2 0x35E JUMPI PUSH1 0x80 DUP7 SWAP3 PUSH1 0x32 PUSH1 0xE4 SWAP7 PUSH1 0x1 DUP12 MLOAD SWAP13 DUP14 SWAP11 DUP12 SWAP10 PUSH4 0x826FA8EB PUSH1 0xE0 SHL DUP12 MSTORE DUP11 ADD MSTORE DUP9 ADD MSTORE DUP7 ADD MSTORE DUP5 ADD MSTORE PUSH1 0x2F PUSH1 0x84 DUP5 ADD MSTORE PUSH32 0x5269736B206173736573736D656E74206661696C6564202D206D616E75616C20 PUSH1 0xA4 DUP5 ADD MSTORE PUSH15 0x1C995D9A595DC81C995C5D5A5C9959 PUSH1 0x8A SHL PUSH1 0xC4 DUP5 ADD MSTORE GAS CALL SWAP1 DUP2 ISZERO PUSH2 0x62D JUMPI POP PUSH2 0x6E6 JUMPI POP DUP1 RETURN JUMPDEST PUSH2 0x6EF SWAP1 PUSH2 0xE87 JUMP JUMPDEST DUP1 RETURN JUMPDEST POP DUP1 MLOAD ISZERO ISZERO PUSH2 0x534 JUMP JUMPDEST POP POP PUSH1 0x17 SWAP3 POP PUSH32 0x4F7261636C653A20756E6B6E6F776E2072657175657374000000000000000000 SWAP5 SWAP7 MLOAD SWAP6 PUSH3 0x461BCD PUSH1 0xE5 SHL DUP8 MSTORE DUP7 ADD MSTORE DUP5 ADD MSTORE DUP3 ADD MSTORE REVERT JUMPDEST POP POP PUSH1 0x19 SWAP3 POP PUSH32 0x4F7261636C653A20616C72656164792070726F63657373656400000000000000 SWAP5 SWAP7 MLOAD SWAP6 PUSH3 0x461BCD PUSH1 0xE5 SHL DUP8 MSTORE DUP7 ADD MSTORE DUP5 ADD MSTORE DUP3 ADD MSTORE REVERT JUMPDEST POP POP PUSH1 0x15 SWAP3 POP PUSH21 0x4F7261636C653A206F6E6C7920706C6174666F726D PUSH1 0x58 SHL SWAP5 SWAP7 MLOAD SWAP6 PUSH3 0x461BCD PUSH1 0xE5 SHL DUP8 MSTORE DUP7 ADD MSTORE DUP5 ADD MSTORE DUP3 ADD MSTORE REVERT JUMPDEST DUP13 DUP1 REVERT JUMPDEST PUSH4 0x4E487B71 PUSH1 0xE0 SHL DUP14 MSTORE PUSH1 0x41 DUP11 MSTORE DUP6 DUP14 REVERT JUMPDEST DUP12 DUP1 REVERT JUMPDEST DUP3 CALLDATALOAD DUP7 DUP2 GT PUSH2 0x7B1 JUMPI DUP3 ADD DUP8 PUSH1 0x23 NOT DUP3 CALLDATASIZE SUB ADD SLT PUSH2 0x7B1 JUMPI DUP11 MLOAD SWAP1 DUP9 DUP3 ADD DUP3 DUP2 LT DUP10 DUP3 GT OR PUSH2 0x825 JUMPI DUP13 MSTORE DUP7 DUP2 ADD CALLDATALOAD DUP9 DUP2 GT PUSH2 0x821 JUMPI SWAP2 PUSH2 0x814 DUP11 SWAP5 SWAP3 DUP10 DUP7 SWAP6 CALLDATASIZE SWAP3 ADD ADD PUSH2 0xF27 JUMP JUMPDEST DUP2 MSTORE DUP2 MSTORE ADD SWAP3 ADD SWAP2 PUSH2 0x404 JUMP JUMPDEST DUP15 DUP1 REVERT JUMPDEST PUSH4 0x4E487B71 PUSH1 0xE0 SHL DUP16 MSTORE PUSH1 0x41 DUP13 MSTORE DUP8 DUP16 REVERT JUMPDEST PUSH4 0x4E487B71 PUSH1 0xE0 SHL DUP9 MSTORE PUSH1 0x41 DUP6 MSTORE DUP8 REVERT JUMPDEST DUP7 DUP1 REVERT JUMPDEST POP SWAP1 CALLVALUE PUSH2 0x38E JUMPI DUP2 PUSH1 0x3 NOT CALLDATASIZE ADD SLT PUSH2 0x38E JUMPI MLOAD PUSH32 0x0 PUSH1 0x1 PUSH1 0x1 PUSH1 0xA0 SHL SUB AND DUP2 MSTORE PUSH1 0x20 SWAP1 RETURN JUMPDEST POP SWAP2 CALLVALUE PUSH2 0x17A JUMPI PUSH1 0x20 CALLDATASIZE PUSH1 0x3 NOT ADD SLT PUSH2 0x17A JUMPI CALLDATALOAD PUSH1 0x5 SLOAD DUP2 LT ISZERO PUSH2 0x17A JUMPI PUSH2 0x8E0 SWAP1 PUSH1 0x5 PUSH2 0x8F3 SWAP5 MSTORE PUSH32 0x36B6384B5ECA791C62761152D0C79BB0604C104A5FB6F4EB0703F3154BB3DB0 ADD PUSH2 0xFC1 JUMP JUMPDEST SWAP1 MLOAD SWAP2 DUP3 SWAP2 PUSH1 0x20 DUP4 MSTORE PUSH1 0x20 DUP4 ADD SWAP1 PUSH2 0x1089 JUMP JUMPDEST SUB SWAP1 RETURN JUMPDEST POP SWAP1 CALLVALUE PUSH2 0x38E JUMPI DUP2 PUSH1 0x3 NOT CALLDATASIZE ADD SLT PUSH2 0x38E JUMPI PUSH1 0x20 SWAP1 PUSH1 0x1 SLOAD SWAP1 MLOAD SWAP1 DUP2 MSTORE RETURN JUMPDEST POP SWAP2 CALLVALUE PUSH2 0x17A JUMPI PUSH1 0x20 CALLDATASIZE PUSH1 0x3 NOT ADD SLT PUSH2 0x17A JUMPI PUSH1 0x20 SWAP3 DUP3 SWAP2 CALLDATALOAD DUP2 MSTORE PUSH1 0x2 DUP5 MSTORE KECCAK256 SLOAD SWAP1 MLOAD SWAP1 DUP2 MSTORE RETURN JUMPDEST POP SWAP1 CALLVALUE PUSH2 0x38E JUMPI DUP2 PUSH1 0x3 NOT CALLDATASIZE ADD SLT PUSH2 0x38E JUMPI PUSH1 0x20 SWAP1 MLOAD PUSH8 0xB24AC1AFBCEFC708 DUP2 MSTORE RETURN JUMPDEST POP DUP3 CALLVALUE PUSH2 0x38E JUMPI PUSH1 0x20 CALLDATASIZE PUSH1 0x3 NOT ADD SLT PUSH2 0x38E JUMPI PUSH2 0x97F ORIGIN CALLER EQ PUSH2 0x1132 JUMP JUMPDEST CALLDATALOAD PUSH1 0x1 SSTORE DUP1 RETURN JUMPDEST POP DUP3 CALLVALUE PUSH2 0x38E JUMPI PUSH1 0x20 CALLDATASIZE PUSH1 0x3 NOT ADD SLT PUSH2 0x38E JUMPI CALLDATALOAD PUSH1 0x1 PUSH1 0x1 PUSH1 0xA0 SHL SUB DUP2 DUP2 AND SWAP2 DUP3 SWAP1 SUB PUSH2 0x17A JUMPI DUP3 SLOAD SWAP1 DUP2 AND CALLER EQ DUP1 ISZERO PUSH2 0x9D4 JUMPI JUMPDEST PUSH2 0x9C4 SWAP1 PUSH2 0x1132 JUMP JUMPDEST PUSH1 0x1 PUSH1 0x1 PUSH1 0xA0 SHL SUB NOT AND OR DUP2 SSTORE DUP1 RETURN JUMPDEST POP CALLER ORIGIN EQ PUSH2 0x9BB JUMP JUMPDEST POP SWAP2 SWAP1 CALLVALUE PUSH2 0x17A JUMPI DUP1 PUSH1 0x3 NOT CALLDATASIZE ADD SLT PUSH2 0x17A JUMPI DUP2 CALLDATALOAD SWAP2 PUSH8 0xFFFFFFFFFFFFFFFF SWAP1 PUSH1 0x24 DUP1 CALLDATALOAD DUP4 DUP2 GT PUSH2 0x848 JUMPI PUSH2 0xA15 SWAP1 CALLDATASIZE SWAP1 DUP5 ADD PUSH2 0xF27 JUMP JUMPDEST POP DUP6 SLOAD PUSH1 0x1 PUSH1 0x1 PUSH1 0xA0 SHL SUB SWAP1 DUP2 AND CALLER SUB PUSH2 0xE4F JUMPI PUSH2 0xA32 DUP7 PUSH2 0x12D0 JUMP JUMPDEST SWAP3 DUP6 MLOAD SWAP5 PUSH2 0xB6E PUSH1 0xEE DUP8 PUSH1 0x20 SWAP8 PUSH32 0x417373657373207472616E73616374696F6E207269736B20666F722074784964 DUP10 DUP4 ADD MSTORE PUSH1 0x1 PUSH1 0xFD SHL DUP12 DUP4 ADD MSTORE PUSH2 0xA80 DUP2 MLOAD DUP1 SWAP3 DUP12 PUSH1 0x41 DUP7 ADD SWAP2 ADD PUSH2 0x1066 JUMP JUMPDEST DUP2 ADD PUSH32 0x2E20436F6E73696465723A207472616E73616374696F6E2076616C75652C2072 PUSH1 0x41 DUP3 ADD MSTORE PUSH32 0x6563697069656E742072657075746174696F6E2C20746F6B656E207269736B20 PUSH1 0x61 DUP3 ADD MSTORE PUSH9 0x383937B334B632961 PUSH1 0xBD SHL PUSH1 0x81 DUP3 ADD MSTORE PUSH32 0x6167656E74206265686176696F72207061747465726E732C206E6574776F726B PUSH1 0x8A DUP3 ADD MSTORE PUSH32 0x20636F6E646974696F6E732C20616E64207072697661637920636F6D706C6961 PUSH1 0xAA DUP3 ADD MSTORE PUSH5 0x3731B2971 PUSH1 0xDD SHL PUSH1 0xCA DUP3 ADD MSTORE PUSH32 0x52657475726E3A20736166652C207265766965772C206F7220626C6F636B2E00 PUSH1 0xCF DUP3 ADD MSTORE SUB PUSH1 0xCE DUP2 ADD DUP10 MSTORE ADD DUP8 PUSH2 0xEE9 JUMP JUMPDEST DUP7 MLOAD PUSH1 0xA0 DUP2 ADD DUP2 DUP2 LT DUP4 DUP3 GT OR PUSH2 0xE3D JUMPI DUP9 MSTORE PUSH1 0x6B DUP2 MSTORE PUSH32 0x596F75206172652061204465466920736563757269747920616E616C79737420 DUP7 DUP3 ADD MSTORE PUSH32 0x6576616C756174696E67206167656E74207472616E73616374696F6E20726973 DUP9 DUP3 ADD MSTORE PUSH1 0x60 PUSH32 0x6B2E2052657475726E206F6E6C79206F6E653A20736166652C20726576696577 PUSH1 0x60 DUP4 ADD MSTORE PUSH11 0x161037B910313637B1B597 PUSH1 0xA9 SHL PUSH1 0x80 DUP4 ADD MSTORE DUP9 MLOAD SWAP3 PUSH1 0x80 DUP5 ADD SWAP1 DUP5 DUP3 LT SWAP1 DUP3 GT OR PUSH2 0xE2B JUMPI DUP10 MSTORE PUSH1 0x3 DUP4 MSTORE DUP11 SWAP2 SWAP1 DUP3 JUMPDEST DUP2 DUP2 LT PUSH2 0xE19 JUMPI POP POP SWAP2 PUSH2 0xCCA SWAP8 SWAP2 DUP8 SWAP7 SWAP6 SWAP5 SWAP4 PUSH2 0xC45 PUSH2 0x10F1 JUMP JUMPDEST PUSH2 0xC4E DUP5 PUSH2 0x10AE JUMP JUMPDEST MSTORE PUSH2 0xC58 DUP4 PUSH2 0x10AE JUMP JUMPDEST POP DUP11 MLOAD PUSH2 0xC64 DUP2 PUSH2 0xEB1 JUMP JUMPDEST PUSH1 0x6 DUP2 MSTORE PUSH6 0x726576696577 PUSH1 0xD0 SHL DUP10 DUP3 ADD MSTORE PUSH2 0xC7F DUP5 PUSH2 0x10D1 JUMP JUMPDEST MSTORE PUSH2 0xC89 DUP4 PUSH2 0x10D1 JUMP JUMPDEST POP PUSH2 0xC92 PUSH2 0x1111 JUMP JUMPDEST PUSH2 0xC9B DUP5 PUSH2 0x10E1 JUMP JUMPDEST MSTORE PUSH2 0xCA5 DUP4 PUSH2 0x10E1 JUMP JUMPDEST POP PUSH2 0xCDD DUP12 MLOAD SWAP11 DUP12 SWAP6 PUSH4 0x1FCF9413 PUSH1 0xE3 SHL DUP12 DUP9 ADD MSTORE PUSH1 0x80 DUP11 DUP9 ADD MSTORE PUSH1 0xA4 DUP8 ADD SWAP1 PUSH2 0x1089 JUMP JUMPDEST PUSH1 0x23 NOT SWAP3 DUP4 DUP8 DUP4 SUB ADD PUSH1 0x44 DUP9 ADD MSTORE PUSH2 0x1089 JUMP JUMPDEST SWAP1 DUP3 PUSH1 0x64 DUP7 ADD MSTORE DUP5 DUP3 SUB ADD PUSH1 0x84 DUP6 ADD MSTORE DUP3 MLOAD SWAP1 DUP2 DUP2 MSTORE DUP9 DUP2 ADD DUP10 DUP1 DUP5 PUSH1 0x5 SHL DUP5 ADD ADD SWAP6 ADD SWAP4 SWAP2 JUMPDEST DUP4 DUP4 LT PUSH2 0xDE5 JUMPI POP POP POP POP POP PUSH8 0xB24AC1AFBCEFC708 SWAP3 SWAP2 PUSH2 0xD2D SWAP2 SUB PUSH1 0x1F NOT DUP2 ADD DUP10 MSTORE DUP9 PUSH2 0xEE9 JUMP JUMPDEST PUSH1 0x1 SLOAD SWAP1 PUSH2 0xD6D DUP10 MLOAD SWAP9 DUP10 SWAP7 DUP8 SWAP6 DUP7 SWAP5 PUSH4 0x45DE5DF1 PUSH1 0xE1 SHL DUP7 MSTORE DUP6 ADD MSTORE ADDRESS SWAP1 DUP5 ADD MSTORE PUSH4 0x17EBFCE7 PUSH1 0xE3 SHL PUSH1 0x44 DUP5 ADD MSTORE PUSH1 0x80 PUSH1 0x64 DUP5 ADD MSTORE PUSH1 0x84 DUP4 ADD SWAP1 PUSH2 0x1089 JUMP JUMPDEST SUB SWAP3 PUSH32 0x0 AND GAS CALL DUP1 ISZERO PUSH2 0xDDB JUMPI DUP6 SWAP1 PUSH2 0xDAD JUMPI JUMPDEST PUSH1 0x2 SWAP3 POP DUP6 MSTORE MSTORE DUP3 KECCAK256 SSTORE DUP1 RETURN JUMPDEST POP DUP1 DUP3 DUP2 RETURNDATASIZE DUP4 GT PUSH2 0xDD4 JUMPI JUMPDEST PUSH2 0xDC3 DUP2 DUP4 PUSH2 0xEE9 JUMP JUMPDEST DUP2 ADD SUB SLT PUSH2 0x362 JUMPI PUSH1 0x2 SWAP2 MLOAD PUSH2 0xDA0 JUMP JUMPDEST POP RETURNDATASIZE PUSH2 0xDB9 JUMP JUMPDEST DUP4 MLOAD RETURNDATASIZE DUP8 DUP3 RETURNDATACOPY RETURNDATASIZE SWAP1 REVERT JUMPDEST SWAP3 SWAP6 POP SWAP3 SWAP6 SWAP7 SWAP8 SWAP9 DUP1 PUSH2 0xE05 PUSH1 0x1 SWAP4 SWAP7 PUSH1 0x1F NOT DUP7 DUP3 SUB ADD DUP8 MSTORE DUP10 MLOAD PUSH2 0x1089 JUMP JUMPDEST SWAP8 ADD SWAP4 ADD SWAP4 ADD DUP10 SWAP9 SWAP8 SWAP7 SWAP6 SWAP4 DUP12 SWAP6 SWAP3 PUSH2 0xD04 JUMP JUMPDEST DUP5 DUP2 ADD DUP10 ADD DUP3 SWAP1 MSTORE DUP13 SWAP4 POP DUP9 ADD PUSH2 0xC29 JUMP JUMPDEST PUSH4 0x4E487B71 PUSH1 0xE0 SHL DUP13 MSTORE PUSH1 0x41 DUP6 MSTORE DUP7 DUP13 REVERT JUMPDEST PUSH4 0x4E487B71 PUSH1 0xE0 SHL DUP12 MSTORE PUSH1 0x41 DUP5 MSTORE DUP6 DUP12 REVERT JUMPDEST DUP5 MLOAD PUSH3 0x461BCD PUSH1 0xE5 SHL DUP2 MSTORE PUSH1 0x20 DUP2 DUP6 ADD MSTORE PUSH1 0x13 DUP2 DUP5 ADD MSTORE PUSH19 0x4F7261636C653A206F6E6C7920656E67696E65 PUSH1 0x68 SHL PUSH1 0x44 DUP3 ADD MSTORE PUSH1 0x64 SWAP1 REVERT JUMPDEST PUSH8 0xFFFFFFFFFFFFFFFF DUP2 GT PUSH2 0xE9B JUMPI PUSH1 0x40 MSTORE JUMP JUMPDEST PUSH4 0x4E487B71 PUSH1 0xE0 SHL PUSH1 0x0 MSTORE PUSH1 0x41 PUSH1 0x4 MSTORE PUSH1 0x24 PUSH1 0x0 REVERT JUMPDEST PUSH1 0x40 DUP2 ADD SWAP1 DUP2 LT PUSH8 0xFFFFFFFFFFFFFFFF DUP3 GT OR PUSH2 0xE9B JUMPI PUSH1 0x40 MSTORE JUMP JUMPDEST PUSH1 0x60 DUP2 ADD SWAP1 DUP2 LT PUSH8 0xFFFFFFFFFFFFFFFF DUP3 GT OR PUSH2 0xE9B JUMPI PUSH1 0x40 MSTORE JUMP JUMPDEST SWAP1 PUSH1 0x1F DUP1 NOT SWAP2 ADD AND DUP2 ADD SWAP1 DUP2 LT PUSH8 0xFFFFFFFFFFFFFFFF DUP3 GT OR PUSH2 0xE9B JUMPI PUSH1 0x40 MSTORE JUMP JUMPDEST PUSH8 0xFFFFFFFFFFFFFFFF DUP2 GT PUSH2 0xE9B JUMPI PUSH1 0x1F ADD PUSH1 0x1F NOT AND PUSH1 0x20 ADD SWAP1 JUMP JUMPDEST DUP2 PUSH1 0x1F DUP3 ADD SLT ISZERO PUSH2 0xF6E JUMPI DUP1 CALLDATALOAD SWAP1 PUSH2 0xF3E DUP3 PUSH2 0xF0B JUMP JUMPDEST SWAP3 PUSH2 0xF4C PUSH1 0x40 MLOAD SWAP5 DUP6 PUSH2 0xEE9 JUMP JUMPDEST DUP3 DUP5 MSTORE PUSH1 0x20 DUP4 DUP4 ADD ADD GT PUSH2 0xF6E JUMPI DUP2 PUSH1 0x0 SWAP3 PUSH1 0x20 DUP1 SWAP4 ADD DUP4 DUP7 ADD CALLDATACOPY DUP4 ADD ADD MSTORE SWAP1 JUMP JUMPDEST PUSH1 0x0 DUP1 REVERT JUMPDEST CALLDATALOAD SWAP1 PUSH1 0x1 PUSH1 0x1 PUSH1 0xA0 SHL SUB DUP3 AND DUP3 SUB PUSH2 0xF6E JUMPI JUMP JUMPDEST SWAP1 PUSH1 0x1 DUP3 DUP2 SHR SWAP3 AND DUP1 ISZERO PUSH2 0xFB7 JUMPI JUMPDEST PUSH1 0x20 DUP4 LT EQ PUSH2 0xFA1 JUMPI JUMP JUMPDEST PUSH4 0x4E487B71 PUSH1 0xE0 SHL PUSH1 0x0 MSTORE PUSH1 0x22 PUSH1 0x4 MSTORE PUSH1 0x24 PUSH1 0x0 REVERT JUMPDEST SWAP2 PUSH1 0x7F AND SWAP2 PUSH2 0xF96 JUMP JUMPDEST SWAP1 PUSH1 0x40 MLOAD SWAP2 DUP3 PUSH1 0x0 DUP3 SLOAD PUSH2 0xFD4 DUP2 PUSH2 0xF87 JUMP JUMPDEST SWAP1 DUP2 DUP5 MSTORE PUSH1 0x20 SWAP5 PUSH1 0x1 SWAP2 PUSH1 0x1 DUP2 AND SWAP1 DUP2 PUSH1 0x0 EQ PUSH2 0x1044 JUMPI POP PUSH1 0x1 EQ PUSH2 0x1005 JUMPI JUMPDEST POP POP POP PUSH2 0x1003 SWAP3 POP SUB DUP4 PUSH2 0xEE9 JUMP JUMPDEST JUMP JUMPDEST PUSH1 0x0 SWAP1 DUP2 MSTORE DUP6 DUP2 KECCAK256 SWAP6 SWAP4 POP SWAP2 SWAP1 JUMPDEST DUP2 DUP4 LT PUSH2 0x102C JUMPI POP POP PUSH2 0x1003 SWAP4 POP DUP3 ADD ADD CODESIZE DUP1 DUP1 PUSH2 0xFF4 JUMP JUMPDEST DUP6 SLOAD DUP9 DUP5 ADD DUP6 ADD MSTORE SWAP5 DUP6 ADD SWAP5 DUP8 SWAP5 POP SWAP2 DUP4 ADD SWAP2 PUSH2 0x1013 JUMP JUMPDEST SWAP3 POP POP POP PUSH2 0x1003 SWAP5 SWAP3 POP PUSH1 0xFF NOT AND DUP3 DUP5 ADD MSTORE ISZERO ISZERO PUSH1 0x5 SHL DUP3 ADD ADD CODESIZE DUP1 DUP1 PUSH2 0xFF4 JUMP JUMPDEST PUSH1 0x0 JUMPDEST DUP4 DUP2 LT PUSH2 0x1079 JUMPI POP POP PUSH1 0x0 SWAP2 ADD MSTORE JUMP JUMPDEST DUP2 DUP2 ADD MLOAD DUP4 DUP3 ADD MSTORE PUSH1 0x20 ADD PUSH2 0x1069 JUMP JUMPDEST SWAP1 PUSH1 0x20 SWAP2 PUSH2 0x10A2 DUP2 MLOAD DUP1 SWAP3 DUP2 DUP6 MSTORE DUP6 DUP1 DUP7 ADD SWAP2 ADD PUSH2 0x1066 JUMP JUMPDEST PUSH1 0x1F ADD PUSH1 0x1F NOT AND ADD ADD SWAP1 JUMP JUMPDEST DUP1 MLOAD ISZERO PUSH2 0x10BB JUMPI PUSH1 0x20 ADD SWAP1 JUMP JUMPDEST PUSH4 0x4E487B71 PUSH1 0xE0 SHL PUSH1 0x0 MSTORE PUSH1 0x32 PUSH1 0x4 MSTORE PUSH1 0x24 PUSH1 0x0 REVERT JUMPDEST DUP1 MLOAD PUSH1 0x1 LT ISZERO PUSH2 0x10BB JUMPI PUSH1 0x40 ADD SWAP1 JUMP JUMPDEST DUP1 MLOAD PUSH1 0x2 LT ISZERO PUSH2 0x10BB JUMPI PUSH1 0x60 ADD SWAP1 JUMP JUMPDEST PUSH1 0x40 MLOAD SWAP1 PUSH2 0x10FE DUP3 PUSH2 0xEB1 JUMP JUMPDEST PUSH1 0x4 DUP3 MSTORE PUSH4 0x73616665 PUSH1 0xE0 SHL PUSH1 0x20 DUP4 ADD MSTORE JUMP JUMPDEST PUSH1 0x40 MLOAD SWAP1 PUSH2 0x111E DUP3 PUSH2 0xEB1 JUMP JUMPDEST PUSH1 0x5 DUP3 MSTORE PUSH5 0x626C6F636B PUSH1 0xD8 SHL PUSH1 0x20 DUP4 ADD MSTORE JUMP JUMPDEST ISZERO PUSH2 0x1139 JUMPI JUMP JUMPDEST PUSH1 0x40 MLOAD PUSH3 0x461BCD PUSH1 0xE5 SHL DUP2 MSTORE PUSH1 0x20 PUSH1 0x4 DUP3 ADD MSTORE PUSH1 0x14 PUSH1 0x24 DUP3 ADD MSTORE PUSH20 0x13DC9858DB194E881D5B985D5D1A1BDC9A5E9959 PUSH1 0x62 SHL PUSH1 0x44 DUP3 ADD MSTORE PUSH1 0x64 SWAP1 REVERT JUMPDEST DUP1 MLOAD SWAP1 PUSH1 0x20 DUP2 ADD SWAP2 DUP3 KECCAK256 PUSH2 0x1187 PUSH2 0x10F1 JUMP JUMPDEST PUSH1 0x20 DUP2 MLOAD SWAP2 ADD KECCAK256 EQ PUSH1 0x0 EQ PUSH2 0x11A0 JUMPI POP POP PUSH1 0x0 SWAP1 PUSH1 0xF SWAP1 JUMP JUMPDEST MLOAD SWAP1 KECCAK256 PUSH2 0x11AB PUSH2 0x1111 JUMP JUMPDEST PUSH1 0x20 DUP2 MLOAD SWAP2 ADD KECCAK256 EQ PUSH1 0x0 EQ PUSH2 0x11C2 JUMPI PUSH1 0x2 SWAP1 PUSH1 0x55 SWAP1 JUMP JUMPDEST PUSH1 0x1 SWAP1 PUSH1 0x32 SWAP1 JUMP JUMPDEST DUP1 MLOAD PUSH1 0x20 SWAP2 DUP3 DUP2 ADD SWAP2 DUP3 KECCAK256 PUSH2 0x11DD PUSH2 0x10F1 JUMP JUMPDEST DUP1 MLOAD SWAP1 DUP6 ADD KECCAK256 SUB PUSH2 0x122D JUMPI POP POP PUSH32 0x5472616E73616374696F6E2070617373656420616C6C207269736B2063686563 PUSH1 0x40 MLOAD SWAP2 PUSH2 0x1218 DUP4 PUSH2 0xECD JUMP JUMPDEST PUSH1 0x22 DUP4 MSTORE DUP3 ADD MSTORE PUSH2 0x6B73 PUSH1 0xF0 SHL PUSH1 0x40 DUP3 ADD MSTORE SWAP1 JUMP JUMPDEST MLOAD SWAP1 KECCAK256 PUSH2 0x1238 PUSH2 0x1111 JUMP JUMPDEST DUP1 MLOAD SWAP1 DUP4 ADD KECCAK256 SUB PUSH2 0x128A JUMPI PUSH32 0x5472616E73616374696F6E20626C6F636B6564206279207269736B2061737365 PUSH1 0x40 MLOAD SWAP2 PUSH2 0x1271 DUP4 PUSH2 0xECD JUMP JUMPDEST PUSH1 0x26 DUP4 MSTORE DUP3 ADD MSTORE PUSH6 0x1CDCDB595B9D PUSH1 0xD2 SHL PUSH1 0x40 DUP3 ADD MSTORE SWAP1 JUMP JUMPDEST PUSH32 0x5472616E73616374696F6E20666C616767656420666F72206D616E75616C2072 PUSH1 0x40 MLOAD SWAP2 PUSH2 0x12B8 DUP4 PUSH2 0xECD JUMP JUMPDEST PUSH1 0x25 DUP4 MSTORE DUP3 ADD MSTORE PUSH5 0x6576696577 PUSH1 0xD8 SHL PUSH1 0x40 DUP3 ADD MSTORE SWAP1 JUMP JUMPDEST DUP1 ISZERO PUSH2 0x1391 JUMPI PUSH1 0x0 DUP2 DUP1 JUMPDEST PUSH2 0x1379 JUMPI POP PUSH2 0x12E9 DUP2 PUSH2 0xF0B JUMP JUMPDEST SWAP1 PUSH2 0x12F7 PUSH1 0x40 MLOAD SWAP3 DUP4 PUSH2 0xEE9 JUMP JUMPDEST DUP1 DUP3 MSTORE PUSH1 0x1F NOT PUSH2 0x1306 DUP3 PUSH2 0xF0B JUMP JUMPDEST ADD CALLDATASIZE PUSH1 0x20 DUP5 ADD CALLDATACOPY JUMPDEST DUP1 SWAP3 DUP1 ISZERO PUSH2 0x1372 JUMPI PUSH1 0x0 NOT DUP3 ADD SWAP2 DUP3 GT PUSH2 0x135C JUMPI DUP2 SWAP4 PUSH1 0xA SWAP3 PUSH1 0x30 SWAP1 DUP5 DUP5 MOD DUP3 ADD DUP1 SWAP3 GT PUSH2 0x135C JUMPI DUP6 MLOAD GT ISZERO PUSH2 0x10BB JUMPI PUSH1 0xF8 SHL PUSH1 0x1 PUSH1 0x1 PUSH1 0xF8 SHL SUB NOT AND PUSH1 0x0 BYTE SWAP1 DUP5 ADD PUSH1 0x1F ADD MSTORE8 DIV SWAP2 PUSH2 0x130E JUMP JUMPDEST PUSH4 0x4E487B71 PUSH1 0xE0 SHL PUSH1 0x0 MSTORE PUSH1 0x11 PUSH1 0x4 MSTORE PUSH1 0x24 PUSH1 0x0 REVERT JUMPDEST POP POP SWAP1 POP SWAP1 JUMP JUMPDEST SWAP1 PUSH1 0x0 NOT DUP2 EQ PUSH2 0x135C JUMPI PUSH1 0x1 PUSH1 0xA SWAP2 ADD SWAP2 DIV DUP1 PUSH2 0x12DB JUMP JUMPDEST POP PUSH1 0x40 MLOAD PUSH2 0x139E DUP2 PUSH2 0xEB1 JUMP JUMPDEST PUSH1 0x1 DUP2 MSTORE PUSH1 0x3 PUSH1 0xFC SHL PUSH1 0x20 DUP3 ADD MSTORE SWAP1 JUMP INVALID LOG2 PUSH5 0x6970667358 0x22 SLT KECCAK256 0xE6 BLOBHASH 0xAF 0x23 0x29 0x21 0xB3 REVERT 0xDC PUSH9 0xB8A5CFB55E140F620C 0xE5 0xAA PUSH2 0xD3DD BALANCE 0xE7 LOG2 0xC4 BALANCE 0xC6 DUP13 0xF6 PUSH5 0x736F6C6343 STOP ADDMOD XOR STOP CALLER "},"methodIdentifiers":{"LLM_AGENT_ID()":"2e90c1a9","SOMNIA_PLATFORM()":"bdc154c9","depositAmount()":"419759f5","getRequiredDeposit()":"58e56db4","ghostEngine()":"cfb83d4c","handleRiskResult(uint256,(bytes)[],uint8,(uint256,uint256,address,address,bytes4,bytes,uint256,uint256))":"bf5fe738","processedRequests(uint256)":"e6f0af6e","requestAssessment(uint256,bytes)":"04c08438","requestToTxId(uint256)":"2eafed9e","ruleCategories(uint256)":"7b1ef5f7","rules(string)":"fa851e96","setEngine(address)":"0e830e49","updateDeposit(uint256)":"119e9d64","updateRule(string,bool,uint256)":"d88f6376"}}}}}